:0200000280007C
:10000000C8AB0720C92F0800C52F0800C52F08005E
:10001000C52F0800C52F0800C52F080000000000EC
:100020000000000000000000000000003107080090
:10003000C52F080000000000C1070800FD070800E8
:10004000C52F0800C52F0800C52F0800C52F0800C0
:10005000C52F0800C52F0800C52F0800C52F0800B0
:10006000C52F0800C52F080000000000912D0800D2
:10007000AD2D0800C92D0800E52D08000000000086
:1000800000000000C52F0800C52F0800C52F08007C
:10009000C52F0800C52F0800C52F0800C52F080070
:1000A000C52F080000000000C52F0800C52F08005C
:1000B000C52F0800C52F0800C52F0800C52F080050
:1000C000C52F0800C52F0800C52F0800C52F080040
:1000D000C52F0800C52F0800C52F0800C52F080030
:1000E000C52F0800C52F0800C52F0800C52F080020
:1000F000C52F080008B50548054B191A062900D870
:1001000008BD044A002AFBD09047F9E7B8810800EF
:10011000BB8108000000000008B50748074B191A0A
:100120008A1002EBD273591000D108BD044A002A8C
:10013000FBD09047F9E700BFB8810800B8810800FC
:100140000000000010B5064C237843B9FFF7D2FF3A
:10015000044810B10448AFF300800121217010BDA4
:10016000D808072000000000B881080008B5084B37
:100170001BB108480849AFF300800848016811B175
:10018000074A02B19047BDE80840FFF7C5BF00BF6E
:1001900000000000B8810800DC080720B8810800D2
:1001A000000000004FF001030360704721B1426876
:1001B00042F01003436003E0436823F01001416004
:1001C0004FF00000704700BF01627047436801298B
:1001D00007D823F4981242EA014141604FF0000031
:1001E00070474FF00100704710B4446824F07C540D
:1001F00024F47F444FEA016144EA114412B144F40B
:10020000001401E024F400144FEA036303F07C526D
:10021000144344604FF0000010BC7047012907D818
:100220004FF0010303FA01F101614FF00000704744
:100230004FF00100704700BF2DE9F84341F2A94992
:10024000C0F2080940F61A14C2F2070448F6C8289A
:10025000C2F2070840F6A967C0F2080748F2700624
:10026000C0F20806C8472080D8F800004FF000010F
:100270004FF6FF720B46B847F8B1304640F6F80328
:10028000C2F20703198844F65905C0F20805A847C9
:10029000304640F61811C2F207010988A8473046D7
:1002A00040F60812C2F207021168A847304640F62D
:1002B0000C13C2F207031968A84720464FF4FA71DD
:1002C00041F6B505C0F20805A847CBE710B50446CE
:1002D00048F27403C0F2080353F8200042F641715B
:1002E000C0F20801884748F28000C0F2080050F8C8
:1002F000240040F61C14C2F2070420604FF00001F5
:100300000A4640F25553C0F20803984720684FF060
:10031000000140F27152C0F20802904720684FF08D
:10032000000140F28553C0F20803984710BD00BF9A
:10033000F8B5044640F61C13C2F2070318684FF0E4
:10034000000140F27952C0F2080290474FF02A07AC
:1003500007FB04F740F61C16C2F207064FF0000533
:1003600040F29154C0F2080430682946A047B842D0
:10037000FAD340F61C10C2F2070000684FF00001EB
:1003800040F28553C0F208039847F8BD2DE9F843C1
:100390000C46904648BB002A2BDD8F1848F6A43641
:1003A000C2F2070648F69C35C2F207056FEA01095A
:1003B00007EB090000F0010930682B68984704F149
:1003C0000104BC4219D10DE030682B6821469847E2
:1003D00004F10104214630682A68904704F10104C1
:1003E000BC42F1D14046BDE8F8834FF0FF30BDE894
:1003F000F8834FF00000BDE8F883B9F1000FE3D0B7
:1004000030682A682146904704F10104BC42DBD1E0
:10041000E8E700BF2DE9F8430D46904600F1FF30B4
:10042000022824D832B348F6A436C2F2070648F6AA
:10043000A037C2F207074FF0000402F1FF3909F0BC
:10044000010930683B68095D9847A0421ADA14E058
:1004500030683B68295D984700280EDB04F10104F1
:1004600030683A68295D904700281DDA05E04FF0B2
:10047000FF3404E04FF0000401E04FF0FF34204669
:10048000BDE8F88304F10104A045F8D0B9F1000FEC
:10049000DED030683A68295D90470028EDDB04F132
:1004A0000104A045D4D1EAE704F10104A045CFD16D
:1004B000E5E700BF30B44FF0010404604FF00004E2
:1004C000446040F20225C0F82051C0F80441C0F851
:1004D000144145682B434FEA4202B1FBF2F101F1AE
:1004E000FF324FEA026143EA11434360204630BCC9
:1004F000704700BF43684FEA011101F01002134337
:1005000043607047436819434FEAC212D3B219439C
:100510004160704710B4446822434FEA016101F022
:10052000706422434FEA037303F040510A43426070
:1005300010BC70474FF00203036070470F2904D8C6
:1005400001F1140150F8210070474FF0000070478E
:10055000006B704710B44FEA811143184FF002044A
:1005600044504FF0FF309862196A5A6010BC7047CF
:10057000C0F8C410704700BF4FEA81114FF0050367
:10058000435070474FEA81114FF0020343507047C8
:1005900000EB81110869704710B44FF0AC030360A1
:1005A0000A684C68B2FBF4F34FEA131303F1FF340B
:1005B0004FF6FE7294420CD803628968416040F2A3
:1005C0000223C0F820314FF0500202604FF00000CB
:1005D00001E04FF0010010BC704700BF436913F009
:1005E000020F03D0C1614FF0000070474FF00100CF
:1005F000704700BF436913F0010F04D08069087091
:100600004FF0000070474FF001007047436913F04E
:10061000020F07D04FEAC1514FEAD152C2614FF0E9
:10062000000070474FF00100704700BF436913F0AE
:10063000010F08D080694FEAC0524FEAD2530B60D5
:100640004FF0000070474FF00100704700F10803C1
:1006500043604FF6FF720281C36003614FF00001F7
:10066000016070474FF000030361704743685A68A8
:100670004A6042688A605A689160596041600861C6
:10068000016801F101010160704700BF10B40C88DE
:100690004FF6FF739C4201D103690CE000F108039F
:1006A000C268128892B2944205D35B685A68128875
:1006B00092B29442F9D25A684A6091608B60596054
:1006C0000861016801F10101016010BC704700BFC1
:1006D000436882689A60816843684B6001694A6830
:1006E000824204BF82684A604FF0000303610868D9
:1006F00000F1FF320A600868704700BF03480068D5
:10070000006880F3088862B600DF00BF08ED00E0F3
:100710004FF0807340F8043C40F8081C4FF0000193
:1007200040F80C1C40F8202CA0F14000704700BF9E
:10073000064B19680868B0E8F00F80F309884FF09D
:10074000000080F311884EF00D0E7047488A072094
:100750004EF60453CEF200034FF080521A607047F9
:10076000EFF311804FF0A00181F3118870474FF033
:10077000000000BF08B540F26173C0F2080398475B
:1007800040F20000C2F20700026802F101020260BA
:1007900008BD00BF80F31188704700BF08B540F264
:1007A0000002C2F20702136803F1FF30106030B993
:1007B0004FF0000040F29571C0F20801884708BD73
:1007C000EFF309800C4B1A6820E9F00F10602DE957
:1007D00008404FF0A00080F3118801F0C9F84FF0F5
:1007E000000080F31188BDE8084019680868B0E887
:1007F000F00F80F309887047488A072008B54EF645
:100800000453CEF200034FF080521A6040F2617040
:10081000C0F20800804741F2D141C0F20801884788
:100820004FF0000040F29573C0F20803984708BDEE
:100830004EF21403CEF2000344F61F02C0F201028E
:100840001A604EF21000CEF200004FF00701016076
:10085000704700BF10B54EF62053CEF200031A6861
:1008600042F470001860196841F070441C6040F652
:100870003103C0F2080398474FF0000440F2000231
:10088000C2F20702146040F2FD60C0F20800804727
:10089000204610BD30B448F62412C2F2070200E030
:1008A0001A4613688342FBD31146546815198542D2
:1008B00003D1686804195460104642688418A34242
:1008C0000FD148F62014C2F2070424689C4206D0D7
:1008D0005B689A1842600B681A68026002E0036065
:1008E00000E00360814218BF086030BC704700BF61
:1008F00038B5044641F29543C0F20803984748F6DC
:100900002010C2F20700016811BB48F62412C2F29F
:10091000070240F62013C2F2070313604FF00001F4
:10092000516003F5FF4202F1700048F62015C2F253
:10093000070528605167116747F6F0715960186024
:1009400040F20403C2F207031A68A2F110021A600F
:10095000002C3CD004F1100212F0070F1CBF22F053
:100960000702083202F1FF3047F6FE75A84231D87F
:1009700048F62411C2F207010C6801E02146044642
:1009800063689A4202D920680028F7D148F62015FA
:10099000C2F207052B689C421FD00D6805F11005B7
:1009A0002068086061688B1A202B07D9A018436063
:1009B000626040F69502C0F20802904740F20400DF
:1009C000C2F20700036861685A1A026007E04FF03C
:1009D000000504E04FF0000501E04FF0000541F292
:1009E0006D60C0F208008047284638BD10B5044647
:1009F000C8B141F29543C0F20803984740F20400A1
:100A0000C2F20700016854F80C2C8B180360A4F1A3
:100A1000100040F69501C0F20801884741F26D6070
:100A2000C0F20800804710BDF8B5044640F2757367
:100A3000C0F208039847A06C00281ADD616A19B952
:100A400017E0616A51B914E004F1240641F601355A
:100A5000C0F2080541F68D47C0F208073046A847A6
:100A600000B1B847A26C02F1FF33A364A06C002868
:100A7000E7DC4FF0FF32A26440F29D73C0F208033E
:100A8000984740F27570C0F208008047616C0029F9
:100A90001ADD22691AB917E0226952B914E004F18B
:100AA000100641F60135C0F2080541F68D47C0F247
:100AB00008073046A84700B1B847636C03F1FF3020
:100AC0006064616C0029E7DC4FF0FF33636440F23F
:100AD0009D70C0F208008047F8BD00BF38B50346DE
:100AE000056875B1026CC468A418C460406884428B
:100AF00028BFDD600846D96844F69903C0F20803B0
:100B0000984738BD10B50446036C63B901680029E5
:100B10002ED1406841F67953C0F2080398474FF050
:100B20000000606024E082B980681A4644F69903A8
:100B3000C0F208039847A268216C5018A06063684F
:100B4000984215D32268A26012E0C0681A4644F6A3
:100B50009903C0F208039847226CC2F10000E168D3
:100B60000B18E3602268934202D261680818E060C3
:100B7000A26B02F10102A26310BD00BF38B50D46A1
:100B8000044630B940F26174C0F20804A04700BFC7
:100B9000FDE740F27573C0F2080398472368E06BE5
:100BA000226C00FB023161604FF00001A163A36081
:100BB00000F1FF3002FB0033E3604FF0FF3262646C
:100BC000A26485B92169C1B104F1100041F6013375
:100BD000C0F20803984701280FD140F25170C0F2CB
:100BE0000800804709E004F1100040F24D65C0F2B2
:100BF0000805A84704F12400A84740F29D72C0F2FE
:100C0000080290474FF0010038BD00BFF8B50D460F
:100C100017460646E0B14FF0500040F6F103C0F22F
:100C200008039847044698B106FB05F000F101005F
:100C300040F6F101C0F208018847206070B92046F3
:100C400040F6ED12C0F20802904701E000BFFDE758
:100C500040F26170C0F208008047F7E7E663256460
:100C600020464FF0010140F67D33C0F2080398475B
:100C700084F84D702046F8BD2DE9F04F85B08A46C6
:100C80009B46ADF80620044630B940F26174C0F2CC
:100C90000804A04700BFFDE741B9036C4BB140F227
:100CA0006170C0F20800804700BFFDE74FF0000709
:100CB00001E04FF0000740F27576C0F2080641F6F9
:100CC000A931C0F20801009140F29D75C0F20805FB
:100CD000B047A26BE36B9A421FD2204651465A4658
:100CE00040F60533C0F208039847616A69B104F120
:100CF000240041F60132C0F208029047012804D1D5
:100D000040F25170C0F20800804740F29D73C0F27B
:100D1000080398474FF001006AE0BDF8060038B9B3
:100D200040F29D73C0F2080398474FF000005FE067
:100D300027B902A8009FB8474FF00107A84741F222
:100D40009541C0F208018847B047626CB2F1FF3F9D
:100D500004BF00226264A36CB3F1FF3F04BF002311
:100D6000A364A84702A80DF1060141F6D932C0F2EA
:100D70000802904778BBB047D4F83890D4F83C804C
:100D8000A847C1451BD104F11000BDF8061041F67B
:100D90003123C0F208039847204640F62921C0F2CB
:100DA0000801884741F26D60C0F2080080470028C2
:100DB0008ED140F25172C0F20802904788E7204677
:100DC00040F62923C0F20803984741F26D62C0F251
:100DD000080290477CE7204640F62921C0F208012E
:100DE000884741F26D60C0F2080080474FF0000074
:100DF00005B0BDE8F08F00BF2DE9F0410E46154665
:100E00009846044630B940F26175C0F20805A8471B
:100E100000BFFDE741B9036C33B140F26170C0F22D
:100E20000800804700BFFDE740F26171C0F2080191
:100E300088470746A26BE36B9A4221D2204631468F
:100E4000424640F60533C0F208039847A06CB0F163
:100E5000FF3F0ED1626AB2B104F1240041F60134C1
:100E6000C0F20804A04788B19DB14FF001042C6086
:100E700011E0A16C01F10101A1644FF001040AE04D
:100E80004FF0000407E04FF0010404E04FF00104CC
:100E900001E04FF00104384640F29573C0F20803B8
:100EA00098472046BDE8F0812DE9F04F85B089468E
:100EB0009A46ADF80620044630B940F26174C0F29B
:100EC0000804A04700BFFDE741B9036C4BB140F2F5
:100ED0006170C0F20800804700BFFDE74FF00007D7
:100EE00001E04FF0000740F27576C0F2080641F6C7
:100EF000A93BC0F2080B40F29D75C0F20805B0474F
:100F0000A16B00293FD0E5682046494640F6DD2325
:100F1000C0F208039847BAF1000F1CD1A36B03F18C
:100F2000FF30A063216829B941F69D42C0F2080252
:100F3000904760602369F3B104F1100041F601317C
:100F4000C0F208018847012815D140F25170C0F263
:100F5000080080470FE0E560606A60B104F124009A
:100F600041F60131C0F20801884720B140F25172C8
:100F7000C0F20802904740F29D72C0F2080290470A
:100F80004FF0010074E0BDF806203AB940F29D72BE
:100F9000C0F2080290474FF0000069E01FB902A8B4
:100FA000D8474FF00107A84741F29543C0F2080324
:100FB0009847B047606CB0F1FF3F04BF0020606409
:100FC000A16CB1F1FF3F04BF0021A164A84702A8B2
:100FD0000DF1060141F6D932C0F20802904700280F
:100FE00039D1B047D4F83880A847B8F1000F26D1DE
:100FF00023683BB9B047606841F6D141C0F20801AF
:101000008847A84704F12400BDF8061041F63122B4
:10101000C0F208029047204640F62923C0F2080398
:10102000984741F26D60C0F20800804700287FF4C5
:1010300066AF40F25171C0F2080188475FE7204671
:1010400040F62921C0F20801884741F26D62C0F2E2
:101050000802904753E7204640F62923C0F20803D0
:10106000984741F26D60C0F2080080474FF00000E1
:1010700005B0BDE8F08F00BF38B504460D4640F21C
:101080007573C0F208039847606CB0F1FF3F04BF6E
:1010900000206064A16CB1F1FF3F04BF0021A16496
:1010A00040F29D72C0F208029047A36B3BB904F175
:1010B0002400294641F6A922C0F2080290472046A2
:1010C00040F62921C0F20801884738BD10B5044612
:1010D00048F64823C2F207031868848048F6642162
:1010E000C2F207010A8893B29C4211D248F66823E3
:1010F000C2F20703186848F64821C2F207010968DE
:1011000001F1040140F28D62C0F20802904710BD67
:1011100048F64410C2F20700006848F64821C2F2BF
:101120000701096801F1040140F28D62C0F2080272
:10113000904740F20803C2F20703188881B28C423C
:1011400004D240F20802C2F20702148010BD00BFB0
:101150002DE9F84F0F4690469A460A9D0C9E81460F
:1011600030B940F26177C0F20807B84700BFFDE729
:10117000092D06D940F26175C0F20805A84700BFE5
:10118000FDE74FF0500040F6F103C0F20803984726
:101190000446002800F03681002E40F031814FEAED
:1011A000880040F6F101C0F2080188470646206336
:1011B00030B9204640F6ED12C0F20802904721E116
:1011C00030464FF0A5014FEA880244F6AB06C0F264
:1011D0000806B04708F1FF38206B00EB880222F0C8
:1011E000070B04F1340039464FF0100244F6512742
:1011F000C0F20807B8474FF0000384F84330092DC8
:1012000034BF2E460926E662E66404F10407384638
:1012100040F26568C0F20808C04704F11800C047F2
:101220002461C6F10A06268364625846494652463E
:1012300040F21173C0F208039847206010F0070FC6
:1012400006D040F26174C0F20804A04700BFFDE779
:101250000B9901B10C6040F27570C0F20800804734
:1012600048F68823C2F207031A6802F101021A60E5
:1012700048F64821C2F207010868002858D148F60C
:101280004821C2F207010C6048F68820C2F207002C
:101290000368012B5FD148F67C19C2F20709484662
:1012A00040F24D66C0F20806B04709F11400B0479D
:1012B00009F12800B04709F13C00B04709F150009E
:1012C000B04709F16400B04709F17800B04709F16F
:1012D0008C00B04709F1A000B04709F1B400B04755
:1012E00048F67029C2F207094846B04748F6641824
:1012F000C2F207084046B04748F64C20C2F2070049
:10130000B04748F65010C2F20700B04748F6301018
:10131000C2F20700B04748F64412C2F20702C2F810
:10132000009048F66821C2F20701C1F8008012E07F
:1013300048F64813C2F207031A6862B948F6482112
:10134000C2F207010868C36A9D4204D348F64822E6
:10135000C2F207021460E06A48F68C23C2F2070367
:101360001A68904204D948F68C21C2F2070108603D
:1013700048F66C23C2F207031A68626402F10102A4
:101380001A6048F67811C2F207010B68984204D936
:1013900048F67812C2F20702106000EB800148F6AE
:1013A0007C100346C2F2070303EB8100394640F28A
:1013B0006D62C0F20802904740F29D71C0F20801D0
:1013C000884748F64810C2F20700036883B148F620
:1013D0004822C2F207021168C86A85420CD940F25D
:1013E0005173C0F2080398474FF00100BDE8F88F31
:1013F0004FF00100BDE8F88F4FF00100BDE8F88F15
:101400000663DDE64FF0FF30BDE8F88F10B584B01D
:101410004FF00003009301930293039341F2B970DC
:10142000C0F2080048F2A001C0F208014FF4807237
:1014300041F25114C0F20804A04701281FD141F61F
:10144000B963C0F208039847012818D140F26171CE
:10145000C0F20801884748F64813C2F207034FF06C
:1014600001021A6048F66420C2F207004FF0000142
:10147000018040F65503C0F20803984707E030B9F1
:1014800040F26170C0F20800804700BFFDE704B081
:1014900010BD00BF48F64423C2F207031A6802F1E8
:1014A00001021A60704700BF10B540F27573C0F2B8
:1014B0000803984748F66420C2F207000488A4B2E3
:1014C00040F29D71C0F208018847204610BD00BF60
:1014D0002DE9F84F48F64423C2F2070318680028A4
:1014E00040F0B98048F66423C2F20703188800F17F
:1014F000010081B219801A8893B2002B39D148F6C5
:101500004410C2F2070001680A6832B140F2617506
:10151000C0F20805A84700BFFDE748F64413C2F231
:101520000703196848F66822C2F2070210681860BB
:10153000116048F66022C2F20702116801F1010150
:1015400011601B68186838B940F20803C2F207033B
:101550004FF6FF7018800CE048F64412C2F2070202
:101560001168CB68D868828840F20801C2F207018E
:101570000A8048F66422C2F20702118888B240F25B
:101580000803C2F207031A8891B288426BD348F667
:101590004410C2F2070003681A6882B148F6441486
:1015A000C2F207042168C868C468A38848F66422A8
:1015B000C2F20702118888B283421BD913E040F2BD
:1015C0000803C2F207034FF6FF711980BDE8F88FD8
:1015D0003468E268D468A3884846C2F207000188EC
:1015E0008AB293421CD940F20800C2F2070003807D
:1015F000BDE8F88F40F2D167C0F2080748F67818C6
:10160000C2F2070848F67C1BC2F2070B40F26D6A73
:10161000C0F2080A48F64416C2F2070648F66429E2
:1016200004F104052846B847A36A13B104F1180071
:10163000B847E16AD8F80020914288BFC8F8001086
:1016400001EB81000BEB80002946D0473368196815
:101650000029BDD1B3E748F62C11C2F207010A6890
:1016600002F101020A60BDE8F88F00BF2DE9F047E2
:1016700048F64423C2F20703186830B940F2617596
:10168000C0F20805A84700BFFDE740F27571C0F23F
:101690000801884748F64424C2F20704226802F190
:1016A000FF3323602068002878D148F68821C2F2F1
:1016B00007010C684CBB4FF0000474E0D8F80C2014
:1016C000D46804F11800B84704F104094846B84743
:1016D000E36A3068834288BF33605146C2F2070133
:1016E00003EB830201EB8200494640F26D63C0F2D6
:1016F0000803984748F64820C2F207000168E46AE8
:10170000CA6A944228BF01250FE04FF0000548F651
:101710004C28C2F2070840F2D167C0F2080748F629
:101720007816C2F2070648F67C1AD8F80020002A7C
:10173000C4D148F62C13C2F207031868B0B148F6BA
:101740002C12C2F207021368CBB141F2D145C0F2AC
:10175000080548F62C14C2F20704A847206800F1D7
:10176000FF3121602268002AF7D108E0012D06D060
:1017700048F68421C2F207010C68012C11D148F609
:101780008423C2F207034FF000041C6040F2517042
:10179000C0F2080080474FF0010404E04FF000045D
:1017A00001E04FF0000440F29D71C0F2080188474B
:1017B0002046BDE8F08700BF2DE9F84348F64C15F8
:1017C000C2F2070541F29548C0F2080848F65016E3
:1017D000C2F2070641F26D672DE0C04734683B4610
:1017E000C0F20803984734B340F27570C0F20800A5
:1017F0008047F168CC6804F1040040F2D162C0F285
:101800000802904748F68823C2F20703186800F1DF
:10181000FF3119602A6802F1FF332B6040F29D709E
:10182000C0F208008047206B40F6ED19C0F20809AD
:10183000C8472046C8472B68002BCED148F67C10FD
:10184000C2F2070001680129F5D940F25172C0F2D5
:1018500008029047EFE700BF10B5044618B341F205
:101860009543C0F20803984748F66420C2F2070087
:1018700001886418A4B248F64822C2F20702106830
:1018800000F1040040F2D163C0F2080398472046FB
:1018900041F2CD01C0F20801884741F26D60C0F20B
:1018A0000800804720B940F25172C0F20802904708
:1018B00010BD00BF38B50C46054630B940F2617422
:1018C000C0F20804A04700BFFDE731B940F26175DE
:1018D000C0F20805A84700BFFDE741F29543C0F2FA
:1018E00008039847288801198CB248F66422C2F28E
:1018F0000702138899B288420BD9A04234D948F61E
:101900006421C2F20701088882B22C8094421DD95A
:101910000AE0A04226D848F66420C2F207000288F6
:1019200093B29C421ED81FE048F64823C2F2070338
:10193000186800F1040040F2D161C0F20801884744
:10194000204641F2CD02C0F20802904741F26D609C
:10195000C0F20800804748B940F25173C0F2080352
:10196000984738BD2C80DFE72C80EFE738BD00BFFB
:1019700008B548F64423C2F207031868A8B948F628
:101980007811C2F207010A6802EB82034FEA830072
:1019900048F67C11C2F207010A5852BB48F6781388
:1019A000C2F20703186888B909E048F68421C2F238
:1019B00007014FF00100086008BD1A6872B940F2D3
:1019C0006173C0F20803984700BFFDE748F678133B
:1019D000C2F2070348F67C11C2F207011A6802F14D
:1019E000FF3018601A6802EB820051F82020002AAC
:1019F000E3D048F67813C2F20703196801EB8100BF
:101A000048F67C12C2F2070202EB8003596848686C
:101A1000586003F10802904204BF406858605B6858
:101A2000D96848F64820C2F20700016008BD00BF2F
:101A300038B50C4630B940F26174C0F20804A047D2
:101A400000BFFDE748F64825C2F20705296801F105
:101A5000180140F28D62C0F208029047286800F138
:101A6000040040F2D161C0F2080188474FF6FF70D0
:101A700084420CD1296848F63010C2F2070001F107
:101A8000040140F26D62C0F20802904738BD48F68A
:101A90006423C2F207031A88A11888B241F2CD0369
:101AA000C0F20803984738BD38B50D4630B940F24A
:101AB0006174C0F20804A04700BFFDE748F648245F
:101AC000C2F20704216801F1180140F26D62C0F210
:101AD00008029047206800F1040040F2D161C0F292
:101AE0000801884748F66420C2F207000388EA1814
:101AF00090B241F2CD01C0F20801884738BD00BF65
:101B000038B5C368DC6834B940F26174C0F20804C7
:101B1000A04700BFFDE704F11805284640F2D16157
:101B2000C0F20801884748F64420C2F20700026864
:101B300022BB04F10405284640F2D161C0F208013D
:101B40008847E06A48F67812C2F2070213689842A2
:101B500004D948F67811C2F20701086000EB80034F
:101B600048F67C100246C2F2070202EB83002946C7
:101B700040F26D63C0F20803984709E048F64C2034
:101B8000C2F20700294640F26D63C0F2080398478D
:101B900048F64821C2F207010A68E06AD36A98420F
:101BA00034BF0020012038BD08B5034630B940F2EB
:101BB0006173C0F20803984700BFFDE748F6602252
:101BC000C2F207021068186048F66421C2F20701E9
:101BD0000A889A8008BD00BF38B50D46044630B962
:101BE00040F26173C0F20803984700BFFDE731B9C6
:101BF00040F26175C0F20805A84700BFFDE740F25A
:101C00007573C0F20803984728884FF6FF72904218
:101C10002CD048F66021C2F207010B6822689A4274
:101C200008D048F66421C2F207010B889AB2A18855
:101C300091421ED948F66423C2F207031988A2888C
:101C40008B1A99B2884217D948F66423C2F2070367
:101C500019888BB2D21A80182880204641F6A93400
:101C6000C0F20804A0474FF0000407E04FF0000462
:101C700004E04FF0010401E04FF0010440F29D71D7
:101C8000C0F208018847204638BD00BF48F68423CB
:101C9000C2F207034FF001021A60704748F648236A
:101CA000C2F207031868704748F64813C2F20703E8
:101CB000186848B148F64421C2F207010A68002AB0
:101CC00014BF0220012070474FF00000704700BF92
:101CD00038B5044600284ED0C36A48F64822C2F2FE
:101CE00007021068C16A8B4245D248F64822C2F208
:101CF00007021068C16AC1F10A02228303EB830361
:101D000048F67C10C2F2070000EB830162698A4248
:101D10002AD104F10405284640F2D162C0F208023B
:101D2000904748F64823C2F207031868C16AE16287
:101D300048F67812C2F207021368994204D948F6AD
:101D40007810C2F20700016001EB810148F67C12B5
:101D50001346C2F2070303EB8100294640F26D628D
:101D6000C0F20802904738BD48F64823C2F2070384
:101D70001868C16AE16238BD38B5044650B3C26A1A
:101D8000C36C9A4226D000F10405284640F2D16186
:101D9000C0F208018847E06CE062C0F10A022283C9
:101DA00048F67813C2F207031968884204D948F646
:101DB0007812C2F20702106000EB800348F67C1034
:101DC000C2F2070000EB8300294640F26D62C0F2C8
:101DD0000802904738BD00BF70B540F27573C0F27D
:101DE0000803984748F6C020C2F20700016849BBC3
:101DF00048F69425C2F20705284640F24D66C0F227
:101E00000806B04748F6A824C2F207042046B047A7
:101E100048F69022C2F20702156048F6C423C2F2C7
:101E200007031C604FF005004FF00C014FF000025B
:101E300040F60D43C0F20803984748F6C021C2F2AD
:101E40000701086040F29D70C0F20800804770BD35
:101E500010B5044681802061914213D8D01A218B9D
:101E600083B2994221D948F6C422C2F2070210680F
:101E700004F1040140F28D63C0F2080398474FF06B
:101E8000000010BD9A4201D2994211D248F6902327
:101E9000C2F20703186804F1040140F28D62C0F237
:101EA000080290474FF0000010BD4FF0010010BD38
:101EB0004FF0010010BD00BF10B584B041F6D953FA
:101EC000C0F20803984748F6C020C2F20700016834
:101ED000B9B14FF0090200924FF000030193029351
:101EE000039342F26100C0F2080048F2AC01C0F274
:101EF00008014FF4007241F25114C0F20804A047E7
:101F000030B940F26174C0F20804A04700BFFDE799
:101F100004B010BD10B584B048F6C024C2F2070466
:101F200024683CB30191ADF808200390BBB941F699
:101F3000A943C0F208039847012848F6C023C2F21B
:101F40000703186801A907BFBDF818200023002265
:101F5000134640F67944C0F20804A0470CE020463E
:101F600001A91A464FF0000340F6F954C0F20804E4
:101F7000A04701E04FF0000004B010BD2DE9F04F84
:101F800085B0824641F2A943C0F2080398478146D2
:101F900048F6BC20C2F207000188494551D92DE01E
:101FA000DC682688B6B2DD68EC6804F104052846D2
:101FB000C047616A20468847E06901282DD1238BFC
:101FC000F21891B2B14209D9A1802461386829463A
:101FD00040F28D63C0F2080398471EE0CDF800B0D0
:101FE0002046594632465B46039CA047A8B940F2BA
:101FF0006177C0F20807B84700BFFDE748F69027B1
:10200000C2F2070740F2D168C0F208084FF0000B97
:1020100041F61573C0F2080303933B681868002863
:10202000BED148F6C422C2F20702116848F69020D9
:10203000C2F20700016013604FF00103CAF80030DC
:1020400003E04FF00002CAF8002048F6BC22C2F2BA
:102050000702A2F80090484605B0BDE8F08F00BF27
:102060002DE9F04F89B048F6902BC2F2070B41F2F0
:102070009543C0F20803039341F67D7AC0F2080A43
:10208000DBF800000268002A00F0CD80C7683B88BA
:102090009DB20398804704A8D0470646049A002AB8
:1020A00052D1854238D841F26D60C0F208008047B5
:1020B000DBF80020D168CC6804F1040040F2D1675D
:1020C000C0F20807B847E369012B1FD1208B2A18FB
:1020D000204691B232462B4641F65166C0F20806C0
:1020E000B047012812D14FF0000300932046194653
:1020F0002A4641F61575C0F20805A84730B940F2E6
:102100006177C0F20807B84700BFFDE7616A204663
:1021100088471EE04FF00005AE1B48F6C024C2F20F
:1021200007042068B1B241F27905C0F20805A8475A
:1021300041F26D67C0F20807B84750B940F25173D9
:10214000C0F20803984704E041F26D61C0F2080153
:10215000884704A8D047074648F6C026C2F20706BB
:1021600040F6A965C0F2080540F2D168C0F208083F
:1021700041F65169C0F208094CE0079C24B163693B
:1021800013B104F10400C047059802282AD003289F
:102190003AD000283ED1BDF81830228B991820463D
:1021A00089B23A46C847012834D1636A2046984725
:1021B000E06901282ED1228BBDF8181052184FF07B
:1021C000000300932046194692B241F61574C0F2FE
:1021D0000804A047F0B940F26175C0F20805A847AD
:1021E00000BFFDE7BDF81800208330B940F26176EA
:1021F000C0F20806B04700BFFDE73918204689B293
:102200003A463B46C84705E0204640F6ED13C0F28B
:1022100008039847306805A94FF000021346A84705
:102220000028AAD12CE70399884704A8D04706467E
:10223000049C002C3FF46EAF86E700BF2DE9F0410F
:1022400084B007460D4648F2B403C0F208036C465A
:10225000186859689A68DB680FC404EB171010F807
:10226000101C4FEAC1564FEA01135FFA83F83DB1E3
:102270004FF49052C4F20E024FF48000106306E057
:102280004FF49055C4F20E054FF480046C6306F0D1
:10229000F0614FF49054C4F20E0421636FEA060615
:1022A00006F0F06363634FF4001626634FF00100FD
:1022B00040F23135C0F20805A84766634FF064006C
:1022C000A84707F00F0704AAD01910F8101C4FEA0E
:1022D000C15308EB0107FFB203F0F06222636FEA1B
:1022E000030000F0F061616326634FF00100A8472E
:1022F00066634FF06400A847384604B0BDE8F0813B
:1023000008B54FEA801060F07F020A43D0B24FF068
:10231000000142F23D23C0F2080398474FF0280025
:1023200040F23131C0F2080188474FF0010008BD8A
:1023300008B540F00C004FF0000142F23D23C0F21E
:10234000080398474FF0010008BD00BF08B54FF0E3
:1023500001004FF0000142F23D23C0F2080398470C
:102360004FF4C86040F23131C0F2080188474FF0A5
:10237000010008BD2DE9F0474FF49054C4F20E045B
:102380004FF480072761C4F8A0704FF40015256151
:10239000C4F8A0504FF000532361C4F8A030236369
:1023A0004FF0F0602061C4F8A000656347F2305040
:1023B00040F23136C0F20806B04767634FF0806ADA
:1023C000C4F830A04FF00079C4F830904FF0807816
:1023D000C4F834804FF40007676325634FF00100B1
:1023E000B047656341F20400B047C4F830A0C4F8B8
:1023F0003090C4F83480676325634FF00100B04724
:1024000065634FF06400B047C4F830A0C4F8309062
:10241000C4F83480676325634FF00100B0476563FB
:102420004FF06400B047C4F834A0C4F83090C4F84A
:102430003480676325634FF00100B04765634FF058
:102440006400B0474FF028004FF0000142F23D24F5
:10245000C0F20804A0474FF008004FF00001A04769
:1024600042F24D31C0F20801884740F6B830B0471B
:102470004FF006004FF00001A0474FF0000042F27D
:102480003132C0F2080290474FF00100BDE8F087FA
:1024900070B50446007858B14FF0010642F23D2570
:1024A000C0F208053146A84714F8010F0028F9D1F9
:1024B0004FF0010070BD00BF00B587B0024601A813
:1024C00048F2C401C0F2080144F6F913C0F208034F
:1024D000984701A842F29141C0F20801884707B02D
:1024E00000BD00BFF0B583B004460D464FF00003B9
:1024F00001934FF40060C4F20E0084420DD14FF4FA
:102500000066C4F20E0640F2F557C0F208073046E6
:102510002946B8470028FAD12BE04FF40041C4F215
:1025200009018C420FD14FF40046C4F2090640F273
:102530002D67C0F20807304601A9B8470028FAD134
:10254000019828702BE04FF44042C4F209029442F3
:102550000FD14FF44044C4F2090440F22D66C0F29A
:102560000806204601A9B0470028FAD1019B2B702C
:102570002AE04FF00001C4F20A018C420FD14FF063
:102580000004C4F20A0440F22D66C0F20806204698
:1025900001A9B0470028FAD10198287014E04FF43F
:1025A0008042C4F20A0294420ED14FF48044C4F235
:1025B0000A0440F22D66C0F20806204601A9B04781
:1025C0000028FAD1019B2B7003B0F0BD70B50C460A
:1025D0004FF40063C4F20E0398420FD14FF400652C
:1025E000C4F20E0540F2DD56C0F208062846214628
:1025F000B0470028FAD14FF0010070BD4FF4004100
:10260000C4F2090188420FD14FF40045C4F2090514
:1026100040F20D66C0F2080628462146B047002861
:10262000FAD14FF0010070BD4FF44042C4F20902EC
:1026300090420FD14FF44045C4F2090540F20D66B7
:10264000C0F2080628462146B0470028FAD14FF0CC
:10265000010070BD4FF00003C4F20A0398420FD18D
:102660004FF00005C4F20A0540F20D66C0F20806FC
:1026700028462146B0470028FAD14FF0010070BD2E
:102680004FF48041C4F20A0188420FD14FF48045D3
:10269000C4F20A0540F20D66C0F20806284621463B
:1026A000B0470028FAD14FF0010070BD4FF0000094
:1026B00070BD00BF38B54FF000004FF0010142F28D
:1026C0000135C0F20805A84748F2C800C0F208006A
:1026D00042F29144C0F20804A0474FF000004FF0CE
:1026E0000501A84748F2CC00C0F20800A0474FF00F
:1026F00000004FF00A01A84748F2D000C0F20800DD
:10270000A0474FF000004FF00E01A84748F2D40058
:10271000C0F20800A04738BD30B585B04FF00800C2
:1027200042F64175C0F20805A8474FF40064C4F2B0
:102730000E0448F6A433C2F207031C6048F6A0302A
:10274000C2F2070042F2CD52C0F20802026048F61F
:102750009C31C2F2070142F2E543C0F208030B606C
:102760004FF43D40C0F2015000904FF4E13201922D
:102770004FF4006102914FF00800A84720466946D7
:1027800040F29955C0F20805A84740F21805C2F278
:1027900007052C68A0684FF0000144F6BB04C0F2A6
:1027A0000804A0472B6858684FF00001A04728682C
:1027B00080684FF00001A04705B030BD2DE9F04F13
:1027C00085B042F67513C0F20803984742F6ED1043
:1027D000C0F2080080474FF0000040F2CD21C0F267
:1027E000080188474FF00B0042F64174C0F208041C
:1027F000A0474FF00C00A0474FF00D00A0474FF04E
:102800000E00A04743F2E132C0F2080290474FF0B9
:102810002600A0474FF40046C4F20C06304640F2B2
:10282000A515C0F20805A84730464FF0000140F258
:10283000AD17C0F20807B84730464FF001010A460D
:102840004FF0000340F2E914C0F20804A0473046FC
:102850004FF0000140F2CD13C0F208039847304614
:102860004FF0000140F21D22C0F20802904742F2F0
:102870007530C0F20800804742F2B561C0F208012D
:10288000884748F6A837C2F207074FF000044FF018
:102890000005C4F2310542F2197BC0F2080B48F67C
:1028A000C829C2F2070943F29176B246C0F2080A7B
:1028B0004FF47A733B80C7E902454FF082023A82B7
:1028C0004FF00F007882D8474FF001004FF0000121
:1028D0004FF0030240F60D46C0F20806B047C9F8B3
:1028E000000040B14FF000010A460B4640F6794621
:1028F000C0F20806B0474FF0030100914FF0000608
:10290000019602960396504648F2D801C0F208019B
:102910004FF48062334641F25118C0F20808C047B4
:102920004FF00203009301960296039643F6D950A6
:10293000C0F2080048F2E001C0F208014FF48062E2
:102940003346C0474FF0010200920196029603966B
:1029500040F23920C0F2080048F2E801C0F2080154
:102960004FF480623346C04741F20D40C0F2080088
:1029700080479DE710B54FF43D40C0F2015043F24F
:10298000C923C0F2080398474FF000004FF03E0102
:1029900042F6A162C0F20802904742F61174C0F2FA
:1029A0000804A0470028FCD042F62170C0F20800BD
:1029B00080474FF4C061C4F20E0143F60173C2F2C6
:1029C0000D038B6242F63174C0F20804A047002860
:1029D000FCD04FF0100042F60162C0F208029047AE
:1029E00043F20110C0F20800804710BD10B541F657
:1029F0005023C4F20E034FF400425A604FF00B0014
:102A000042F64174C0F20804A0474FF00C00A04702
:102A10004FF00D00A0474FF00E00A0474FF03B00D5
:102A20004FF0605142F67534C0F20804A0474FF0F1
:102A300055004FF06051A0474FF056004FF06051E5
:102A4000A0474FF068004FF07901C2F60001A0479F
:102A50004FF05C004FF00101C2F60001A0474FF4B7
:102A60006060C4F20E004FF440714FF0006242F615
:102A70007543C0F2080398474FF02B004FF00061F8
:102A8000A0474FF02A004FF00061A04710BD00BFE3
:102A90000AB1416670470166704700BF4264B1F1F8
:102AA000805F16D004D8C9B1B1F1006F15D109E02B
:102AB000B1F1405F12D0B1F1605F0FD0B1F1205F92
:102AC0000BD17047036F016F0B4023EA02030367CA
:102AD00003E0036F42EA030101674260704700BFF1
:102AE00041647047F8B504460D4616461F4642F647
:102AF000E123C0F20803984720462946069A42F689
:102B00009123C0F2080398470FB1256500E0656581
:102B10000EB1256300E0656325612560F8BD00BF47
:102B200070B504460D46164642F6E123C0F208038E
:102B300098472046294606F0010242F69123C0F24A
:102B40000803984716F00A0F14BF2562656216F055
:102B5000020F02D0C4F8805004E016F0080F18BF2E
:102B6000C4F880506561256070BD00BFC06C7047BF
:102B7000806C7047F0B583B00D464FEA501606F5ED
:102B8000001101F207724FEA422605F0F044B4F159
:102B9000205F42D006D8B4F1006F0AD0B4F1805F54
:102BA00064D120E0B4F1405F46D0B4F1605F5DD104
:102BB00042E000F01F074FF0010404FA07F7304627
:102BC0004FF000613A4642F69D23C0F20803984751
:102BD0003046394605EA040242F69123C0F2080362
:102BE0009847204644E000F01F004FF0010404FA2B
:102BF00000F730464FF080513A4642F69D23C0F22E
:102C0000080398473046394605EA040242F6912304
:102C1000C0F20803984720462AE000F01F024FF058
:102C20000104304604FA02F12A4642F62133C0F28A
:102C30000803984720461BE000F01F024FF00104F4
:102C400005F0605305EA04010091304604FA02F1F0
:102C5000B3F1605F14BF00220122C5F3800342F686
:102C6000E525C0F20805A847204601E04FF0000026
:102C700003B0F0BDF0B583B007460E46154602F02E
:102C8000F044B4F1205F36D006D8B4F1006F0AD01A
:102C9000B4F1805F4DD11AE0B4F1405F33D0B4F1AC
:102CA000605F46D12FE04FF00061324642F69D232F
:102CB000C0F2080398473846314605F0010242F653
:102CC0009123C0F2080398474FF0010033E04FF022
:102CD0008051324642F69D23C0F208039847384699
:102CE000314605F0010242F69123C0F208039847ED
:102CF0004FF001001FE042F62133C0F2080398476D
:102D00004FF0010017E005F0605205F0010000905F
:102D100038463146B2F1605F14BF00220122C5F38C
:102D2000800342F6E524C0F20804A0474FF00100FA
:102D300001E04FF0000003B0F0BD00BFF8B504465D
:102D40000E4642F66D33C0F208039847054620460A
:102D500042F67131C0F208018847054014D00B4C8F
:102D6000274654F80C0CB0420AD154F8081C2942EA
:102D700006D022683046904754F8083C25EA0305FF
:102D800004F11004002DEBD1F8BD00BFD88A072054
:102D900008B54FF46060C4F20E004FF00B0142F62C
:102DA0003D53C0F20803984708BD00BF08B54FF473
:102DB0008050C4F20E004FF00C0142F63D53C0F2B9
:102DC0000803984708BD00BF08B54FF49050C4F2FF
:102DD0000E004FF00D0142F63D53C0F20803984734
:102DE00008BD00BF08B54FF4A050C4F20E004FF06C
:102DF0000E0142F63D53C0F20803984708BD00BFDC
:102E00004FF4C063C4F20E031A6B22F07001084342
:102E10001863986E10F0080F07D010E000F1FF3330
:102E2000906E10F0080F38D009E04FF400604FF4B6
:102E3000C062C4F20E02916E11F0080FEED04FF492
:102E4000C061C4F20E010A6B22F0030343F00200DA
:102E50000863896E11F0080F09D04FF00000704729
:102E600003F1FF33916E11F0080F13D009E04FF416
:102E700000634FF4C062C4F20E02906E10F0080FAF
:102E8000EED04FF0000070474FF0010070474FF058
:102E900001007047013BF0D1F9E7581ECBD1F3E7B1
:102EA00088B14FF4C061C4F20E01086A4FF6FC729B
:102EB000CFF6C86202404FF00203C0F2371342EA75
:102EC0000300086270474FF4C063C4F20E031A6A2D
:102ED00022F45C1020F0030242F45C1040F0010286
:102EE0004FEA016142EA114018624FF4C062C4F235
:102EF0000E02936E13F0010FFBD04FF4C061C4F2C9
:102F00000E01086A40F09B7242F480330B627047F6
:102F10004FF4C063C4F20E03986E00F48030704723
:102F20004FF4C063C4F20E034FF000529A62704730
:102F30004FF4C063C4F20E03986E00F002007047B5
:102F40002C2835D81F2817D84FF4C061C4F20E01C1
:102F50008A694FF0010303FA00F31A4093422AD022
:102F60004FF0010101FA00F04FF4C062C4F20E020A
:102F700010614FF0000070474FF4C063C4F20E03BD
:102F8000D3F80821A0F120004FF0010101FA00F16F
:102F90000A40914212D04FF0010303FA00F04FF4BF
:102FA000C062C4F20E02C2F800014FF00000704788
:102FB0004FF0010070474FF0000070474FF00000E5
:102FC000704700BFFEE700BF38B540F20003C2F211
:102FD000070348F2B812C0F208029A4203D04048F0
:102FE0004049814204D3404B404A9A4225D342E0B3
:102FF0003F4D404C631B23F003054FF0000340F2AC
:103000000002C2F2070248F2B811C0F2080105F14D
:103010000400C5F380045D589D5003F1040383420E
:1030200055D1E0E75D589D5003F104035C589C5076
:1030300003F104038342F5D1D5E72F4D2F49481BF7
:1030400020F0030440F6D803C2F20703E2184FF061
:103050000001501BA0F10400C0F3800445F8041FD8
:1030600095422DD107E005F10403696005F10805DB
:1030700059609542F7D140F20005C0F2080525F0ED
:10308000604222F07F014FF46D40CEF2000081607B
:1030900005F16044B4F5801F07D24FF46D43CEF2C2
:1030A00000039D6845F000529A6044F60D01C0F29D
:1030B0000801884742F2BD70C0F208008047FEE771
:1030C000002CD0D045F8041F9542CCD1D3E7002C7A
:1030D000A8D05C589C5003F104038342A2D182E73C
:1030E000D808072000000720C48B0720D808072035
:1030F00004000720DB080720D4080720BF8B072027
:103100004FF4C063C4F20E03186B00F003010329EF
:1031100000F2B180DFE801F002144F4F41F61020B9
:10312000C4F20E00416911F0800F40F20C03C2F2AC
:10313000070314BF4FF400424FF4FA421A609AE0BA
:103140004FF4C063C4F20E03186A10F0807F09D0F8
:103150004FF4D853C0F2B70340F20C02C2F2070298
:10316000136088E04FF41061C0F23D0140F20C02A0
:10317000C2F2070211604FF4C063C4F20E03186A72
:1031800000F07001102902D0202974D109E04FF419
:103190009050C0F27A0040F20C01C2F207010860C0
:1031A00069E04FF4D853C0F2B70340F20C02C2F208
:1031B000070213605FE04FF4C062C4F20E02136AAC
:1031C00013F0807F09D04FF4D851C0F2B70140F21C
:1031D0000C02C2F20702116027E04FF41060C0F247
:1031E0003D0040F20C01C2F2070108604FF4C062DA
:1031F000C4F20E02136A03F07000102802D02028D7
:1032000013D109E04FF49053C0F27A0340F20C005E
:10321000C2F20700036008E04FF4D851C0F2B701D2
:1032200040F20C02C2F2070211604FF4C063C4F214
:103230000E03186B00F00301022913D14FF4C06193
:10324000C4F20E01886A896A40F20C03C2F20703D5
:10325000C0F30A401A6800FB0220C9B2B0FBF1F2C9
:103260001A6008E04FF4E053C0F64E6340F20C02DF
:10327000C2F2070213604FF4C062C4F20E02106B78
:1032800000F0700170290ED140F20C03C2F2070366
:1032900018684AF6AB22CAF6AA22A2FB00014FEA3E
:1032A0005100186070474FF4C063C4F20E031A6BEC
:1032B00040F20C00C2F20700C2F30211036823FAC5
:1032C00001F30360704700BF4EF6BF23C0F2211325
:1032D00098420CD84FF42063C4F20E034FF0000064
:1032E00018604FF44061C4F20E01086070474FF25D
:1032F0007F01C0F2FA2188420CD84FF42060C4F25A
:103300000E004FF4807101604FF44062C4F20E026F
:103310001160704748F6FF73C0F2D03398420CD862
:103320004FF42061C4F20E014FF400720A604FF4B2
:103330004063C4F20E031A6070474BF2FF31C0F2D3
:10334000C44188420CD84FF42063C4F20E034FF4FA
:1033500040721A604FF44060C4F20E000260704781
:1033600044F67F23C0F25D5398424FF42060C4F2CC
:103370000E0094BF4FF480624FF4A06202604FF4DD
:103380004061C4F20E010A60704700BF48F63C334A
:10339000C2F20703196841B948F63C33C2F2070389
:1033A0004AF6C832C2F207021A6048F63C31C2F24D
:1033B00007010B6818180860184670474FF0FF3077
:1033C000704700BF4FF400534B604FF00000704750
:1033D0004FF00100704700BF4FF00000704700BF82
:1033E00038B54FF0250042F64173C0F20803984704
:1033F0004FF00004C4F20C0420464FF4F441C0F630
:10340000032149F68072C0F2D5024FF0080340F262
:10341000B545C0F20805A84720464FF000014FF41B
:1034200040124FF0010340F21555C0F20805A847BD
:1034300020464FF0000140F2F542C0F208029047EA
:103440004FF44860206120464FF000010A4640F2E8
:103450000553C0F20803984738BD00BF70B540F669
:103460000013C2F20703D3E900014FF000024FF04E
:103470000003C4F2240344F2D534C0F20804A04788
:103480004FF000024FF0000344F25165C0F208050E
:10349000A84700BB40F6F400C2F207000188D1B192
:1034A00040F61012C2F20702D2E900014FF000020A
:1034B0004FF00003C4F2240344F2D536C0F20806EC
:1034C000B0474FF000024FF0000344F25164C0F2E5
:1034D0000804A047A0B148F6C823C2F20703186841
:1034E0004FF000010A460B4640F67945C0F2080548
:1034F000A8474FF0320041F65901C0F20801884751
:103500004FF00004C4F20C04204640F23552C0F2E1
:1035100008029047204640F25156C0F20806B047D4
:1035200020464FF00A0140F23D56C0F20806B0476F
:1035300000EB401044F6DB35C2F66875A5FB0023AE
:10354000C11A03EB51024FEA121040F6F803C2F21F
:103550000703188020464FF00B01B04700EB4011E5
:10356000A5FB01354A1B05EB52004FEA101540F64A
:103570001813C2F207031D8070BD00BF00000000D9
:103580002DE9F84F40F6F603C2F20703188838B960
:1035900040F60816C2F207064FF0000737600AE04F
:1035A00040F61812C2F207021188441A40F60815B4
:1035B000C2F207052C6040F60813C2F20703D3F8E5
:1035C00000B048F65C30C2F2070002680BEB020A5A
:1035D000C0F800A044F2B505C0F208055846A84757
:1035E0008046894648F65031C2F20701C1E9008998
:1035F00040F6F404C2F20704208844F29506C0F2B3
:103600000806B04702460B4644F2D534C0F208041F
:1036100031A1D1E90001A04706460F465046A84710
:1036200002460B4644F2811AC0F2080A3046394677
:10363000D04706460F4648F64833C2F20703C3E9AF
:10364000006748F66030C2F207000268C2EB0B0068
:10365000A84721A3D3E90023A04740F61015C2F2E2
:103660000705D5E90023D0474FF000024FF00003D3
:10367000C4F22403A04704460D4648F64031C2F286
:103680000701C1E9004543F61D6BC0F2080B404637
:10369000494632463B46D84702460B462046294615
:1036A000D84740F60013C2F20703D3E90023D047FE
:1036B00044F20572C0F2080290474CF6CD41CCF6B8
:1036C000CC41A1FB00204FEAD00340F60C12C2F21D
:1036D00007021360BDE8F88F9A9999999999B93FB3
:1036E00010B548F65833C2F20703188840F6C312E3
:1036F000904216D840F60C14C2F207042368B3F5C2
:10370000805F40F60C12C2F207022CBF40F6FF7138
:103710000021116000F1010048F65831C2F20701A2
:10372000088040F6F800C2F20700048840F6AC5367
:103730009C4206D940F60C11C2F207014FF000027C
:103740000A604FF40040C4F20C0040F60C14C2F2C0
:103750000704216840F2C913C0F20803984740F6F5
:103760000810C2F20700016848F66032C2F2070290
:10377000116048F6C824C2F2070420684FF0000127
:103780000A460B4640F67944C0F20804A04710BD33
:103790002DE9F84341F2A949C0F2080948F65A3424
:1037A000C2F2070443F25D48C0F2080843F28157B1
:1037B000C0F2080743F2E166C0F2080641F6B5051B
:1037C000C0F20805C8472080C047B847B047204628
:1037D0004FF06401A847F5E770B5002800F0728249
:1037E00000F1FF30042800F26D82DFE810F097004E
:1037F000FC0062010500D90140F21000C2F207008E
:103800000168B1F1FF3F18D14FF00000014642F2CC
:103810000133C0F20803984748F2F000C0F20800F4
:1038200042F29141C0F20801884740F21000C2F212
:1038300007004FF00002026070BD11BB4FF00000A6
:10384000014642F20135C0F20805A84748F2F400EB
:10385000C0F2080042F29144C0F20804A0474FF0C1
:1038600000004FF00401A84748F2F000C0F2080041
:10387000A04740F21003C2F207034FF001021A60A2
:1038800070BD012923D14FF000004FF0040142F236
:103890000135C0F20805A84748F2F400C0F208005C
:1038A00042F29144C0F20804A0474FF000004FF0EC
:1038B0000901A84748F2F000C0F20800A04740F212
:1038C0001000C2F207004FF00201016070BD022932
:1038D00040F0F8814FF000004FF0090142F201354D
:1038E000C0F20805A84748F2F400C0F2080042F20E
:1038F0009144C0F20804A0474FF000004FF00D01C2
:10390000A84748F2F000C0F20800A04740F21003B8
:10391000C2F207034FF003021A6070BD40F21003B9
:10392000C2F20703186878B948F6A831C2F2070155
:103930000A88B2F5006F43D202F1100248F6A830AF
:10394000C2F20700028070BD012826D148F6A835D2
:10395000C2F20705D5E90245204629464FF000028C
:103960004FF00003C4F23E0344F26566C0F208065D
:10397000B047002800F0A68120462946B0A3D3E92D
:10398000002343F61D64C0F20804A04748F6A8329D
:10399000C2F20702C2E9020170BD022810D148F646
:1039A000A832C2F20702118AB1F5967F80F08A81AF
:1039B00001F1320148F6A833C2F20703198270BD43
:1039C000032840F07F8148F6A830C2F20700438AFE
:1039D000132B00F2778103F1010348F6A831C2F2FC
:1039E00007014B8270BD40F21003C2F20703196851
:1039F00079B948F6A830C2F207000288B2F57A7F9A
:103A000044D9A2F1100248F6A831C2F207010A8097
:103A100070BD012928D148F6A834C2F2070404F188
:103A20000805D5E90045204629464FF000024FF031
:103A30000003C4F2240344F2A166C0F20806B047B2
:103A4000002800F03F81204629467DA3D3E90023CA
:103A500043F61964C0F20804A04748F6A833C2F23E
:103A60000703C3E9020170BD02290FD148F6A8304F
:103A7000C2F20700038A322B40F22481A3F1320301
:103A800048F6A832C2F20702138270BD032940F043
:103A9000198148F6A831C2F207014B8A012B40F286
:103AA000118103F1FF3048F6A832C2F207025082BA
:103AB00070BD40F21003C2F207031968032923D135
:103AC0004FF000004FF00D0142F20135C0F2080541
:103AD000A84748F2F400C0F2080042F29144C0F254
:103AE0000804A0474FF000004FF00901A84748F232
:103AF000F000C0F20800A04740F21000C2F2070038
:103B00004FF00202026070BD022923D14FF0000085
:103B10004FF0090142F20135C0F20805A84748F20A
:103B2000F400C0F2080042F29144C0F20804A04739
:103B30004FF000004FF00401A84748F2F000C0F237
:103B40000800A04740F21003C2F207034FF0010142
:103B5000196070BD012940F0B5804FF000004FF0B2
:103B6000040142F20135C0F20805A84748F2F4000A
:103B7000C0F2080042F29144C0F20804A0474FF09E
:103B800000000146A84748F2F000C0F20800A04734
:103B900040F21000C2F207004FF00002026070BD58
:103BA00048F6C821C2F2070108684FF000014FF63D
:103BB000FF720B4640F6A964C0F20804A047002833
:103BC00000F0808048F6A831C2F207010A8840F66A
:103BD000F603C2F207031A80D1E9022340F600106F
:103BE000C2F20700C0E900230A8A40F6F403C2F2D9
:103BF00007031A80488A44F29501C0F208018847F9
:103C000040F61012C2F20702C2E9000140F21000B1
:103C1000C2F207000368BBB94FF00000014642F250
:103C20000132C0F20802904748F2F800C0F20800E2
:103C300042F29143C0F20803984770BDAFF3008091
:103C40009A9999999999B93F012B12D14FF0000097
:103C50004FF0040142F20133C0F20803984748F2E2
:103C6000F800C0F2080042F29141C0F20801884712
:103C700070BD022B12D14FF000004FF0090142F24B
:103C80000133C0F20803984748F2F800C0F2080078
:103C900042F29142C0F20802904770BD032B11D14D
:103CA0004FF000004FF00D0142F20132C0F2080265
:103CB000904748F2F800C0F2080042F29141C0F289
:103CC0000801884770BD00BF82B04FF00003019328
:103CD0000199884213D94FF000020092009B012BFA
:103CE00006D8009901F101010091009B012BF8D940
:103CF000019901F101010191019B8342EDD302B0D1
:103D0000704700BF70B54FF00000C4F20C004FF0D8
:103D1000070140F23D53C0F208039847B0F5C87F51
:103D200010D3B0F57A7F10D340F2DB5188420FD91F
:103D3000B0F5FA6F0FD340F6C314A04294BF052527
:103D400000250AE04FF0040507E04FF0010504E00C
:103D50004FF0020501E04FF0030544F6F010C0F209
:103D6000020043F6C942C0F208029047284643F2D7
:103D7000D976C0F20806B0474FF001004FF00001BD
:103D800042F20136C0F20806B04748F6A835C2F242
:103D90000705288842F2B944C0F20804A0474FF052
:103DA00001004FF00501B047D5E9020144F2B563C7
:103DB000C0F208039847A0474FF001004FF00901F7
:103DC000B047288AA0474FF001004FF00E01B047DE
:103DD000688AA04770BD00BFF8B541F2A943C0F2A0
:103DE0000803984748F66431C2F20701088043F699
:103DF0000557C0F208070E464FF0FA0541F6B50424
:103E0000C0F20804B84730462946A047FAE700BF89
:103E100081F0004102E000BF83F0004330B54FEA7B
:103E200041044FEA430594EA050F08BF90EA020FE8
:103E30001FBF54EA000C55EA020C7FEA645C7FEA7B
:103E4000655C00F0E2804FEA5454D4EB5555B8BF9E
:103E50006D420CDD2C4480EA020281EA030382EA0F
:103E6000000083EA010180EA020281EA0303362DA1
:103E700088BF30BD11F0004F4FEA01314FF4801C74
:103E80004CEA113102D0404261EB410113F0004F86
:103E90004FEA03334CEA133302D0524263EB43033D
:103EA00094EA050F00F0A780A4F10104D5F1200EDB
:103EB0000DDB02FA0EFC22FA05F2801841F1000136
:103EC00003FA0EF2801843FA05F359410EE0A5F10A
:103ED00020050EF1200E012A03FA0EFC28BF4CF03B
:103EE000020C43FA05F3C01851EBE37101F00045F1
:103EF00007D54FF0000EDCF1000C7EEB00006EEBFE
:103F00000101B1F5801F1BD3B1F5001F0CD3490887
:103F10005FEA30004FEA3C0C04F101044FEA4452DE
:103F200012F5800F80F09A80BCF1004F08BF5FEA65
:103F3000500C50F1000041EB045141EA050130BD45
:103F40005FEA4C0C404141EB010111F4801FA4F1E8
:103F50000104E9D191F0000F04BF01460020B1FA3D
:103F600081F308BF2033A3F10B03B3F120020CDA75
:103F70000C3208DD02F1140CC2F10C0201FA0CF053
:103F800021FA02F10CE002F11402D8BFC2F1200CB8
:103F900001FA02F120FA0CFCDCBF41EA0C0190406E
:103FA000E41AA2BF01EB0451294330BD6FEA0404B7
:103FB0001F3C1CDA0C340EDC04F11404C4F12002A2
:103FC00020FA04F001FA02F340EA030021FA04F3B4
:103FD00045EA030130BDC4F10C04C4F1200220FA0B
:103FE00002F001FA04F340EA0300294630BD21FA49
:103FF00004F0294630BD94F0000F83F4801306BF0F
:1040000081F480110134013D4EE77FEA645C18BF02
:104010007FEA655C29D094EA050F08BF90EA020F99
:1040200005D054EA000C04BF1946104630BD91EA91
:10403000030F1EBF0021002030BD5FEA545C05D194
:104040004000494128BF41F0004130BD14F58004D3
:104050003CBF01F5801130BD01F0004545F0FE4147
:1040600041F470014FF0000030BD7FEA645C1ABF7C
:10407000194610467FEA655C1CBF0B46024650EAB3
:10408000013406BF52EA033591EA030F41F40021DF
:1040900030BD00BF90F0000F04BF0021704730B565
:1040A0004FF4806404F132044FF000054FF000013A
:1040B00050E700BF90F0000F04BF0021704730B5FB
:1040C0004FF4806404F1320410F0004548BF4042D0
:1040D0004FF000013EE700BF42004FEAE2014FEA25
:1040E00031014FEA02701FBF12F07F4393F07F4F00
:1040F00081F06051704792F0000F14BF93F07F4F32
:10410000704730B54FF4607401F0004521F0004174
:1041100020E700BF50EA010208BF704730B54FF0FA
:1041200000050AE050EA010208BF704730B511F0FF
:10413000004502D5404261EB41014FF4806404F137
:1041400032045FEA915C3FF4DCAE4FF003025FEAB9
:10415000DC0C18BF03325FEADC0C18BF033202EB41
:10416000DC02C2F1200300FA03FC20FA02F001FA9B
:1041700003FE40EA0E0021FA02F11444C1E600BF3A
:1041800070B54FF0FF0C4CF4E06C1CEA11541DBFED
:104190001CEA135594EA0C0F95EA0C0F00F0DEF8B8
:1041A0002C4481EA030621EA4C5123EA4C5350EA9D
:1041B000013518BF52EA033541F4801143F48013EE
:1041C00038D0A0FB02CE4FF00005E1FB02E506F07F
:1041D0000042E0FB03E54FF00006E1FB03569CF0D4
:1041E000000F18BF4EF0010EA4F1FF04B6F5007FDA
:1041F00064F5407404D25FEA4E0E6D4146EB06064C
:1042000042EAC62141EA55514FEAC52040EA5E50D4
:104210004FEACE2EB4F1FD0C88BFBCF5E06F1ED87E
:10422000BEF1004F08BF5FEA500E50F1000041EBB5
:10423000045170BD06F0004646EA010140EA020062
:1042400081EA0301B4EB5C04C2BFD4EB0C0541EA84
:10425000045170BD41F480114FF0000E013C00F399
:10426000AB8014F1360FDEBF002001F0004170BDBD
:10427000C4F10004203C35DA0C341BDC04F11404D6
:10428000C4F1200500FA05F320FA04F001FA05F262
:1042900040EA020001F0004221F0004110EBD3702F
:1042A00021FA04F642EB06015EEA430E08BF20EA5B
:1042B000D37070BDC4F10C04C4F1200500FA04F3FE
:1042C00020FA05F001FA04F240EA020001F0004190
:1042D00010EBD37041F100015EEA430E08BF20EA03
:1042E000D37070BDC4F1200500FA05F24EEA020E4B
:1042F00020FA04F301FA05F243EA020321FA04F07A
:1043000001F0004121FA04F220EA020000EBD37030
:104310005EEA430E08BF20EAD37070BD94F0000F30
:104320000FD101F00046400041EB010111F4801F64
:1043300008BF013CF7D041EA060195F0000F18BF15
:10434000704703F00046520043EB030313F4801F51
:1043500008BF013DF7D043EA0603704794EA0C0F0B
:104360000CEA135518BF95EA0C0F0CD050EA410621
:1043700018BF52EA4306D1D181EA030101F000419E
:104380004FF0000070BD50EA410606BF10461946C6
:1043900052EA430619D094EA0C0F02D150EA0136D2
:1043A00013D195EA0C0F05D152EA03361CBF104613
:1043B00019460AD181EA030101F0004141F0FE41B2
:1043C00041F470014FF0000070BD41F0FE4141F436
:1043D000780170BD70B54FF0FF0C4CF4E06C1CEA36
:1043E00011541DBF1CEA135594EA0C0F95EA0C0FEB
:1043F00000F0A7F8A4EB050481EA030E52EA0335A6
:104400004FEA013100F088804FEA03334FF08055C6
:1044100045EA131343EA12634FEA022245EA1115F3
:1044200045EA10654FEA00260EF000419D4208BFA4
:10443000964244F1FD0404F5407402D25B084FEA51
:104440003202B61A65EB03055B084FEA32024FF4FD
:1044500080104FF4002CB6EB020E75EB030E22BF5A
:10446000B61A754640EA0C005B084FEA3202B6EB1A
:10447000020E75EB030E22BFB61A754640EA5C00C9
:104480005B084FEA3202B6EB020E75EB030E22BF59
:10449000B61A754640EA9C005B084FEA3202B6EB5A
:1044A000020E75EB030E22BFB61A754640EADC0019
:1044B00055EA060E18D04FEA051545EA16754FEA7B
:1044C00006164FEAC30343EA52734FEAC2025FEA99
:1044D0001C1CC0D111F4801F0BD141EA00014FF028
:1044E00000004FF0004CB6E711F4801F04BF0143F9
:1044F0000020B4F1FD0C88BFBCF5E06F3FF6AFAE15
:10450000B5EB030C04BFB6EB020C5FEA500C50F1A4
:10451000000041EB045170BD0EF0004E4EEA113127
:1045200014EB5C04C2BFD4EB0C0541EA045170BD2E
:1045300041F480114FF0000E013C90E645EA060E72
:104540008DE60CEA135594EA0C0F08BF95EA0C0FA0
:104550003FF43BAF94EA0C0F0AD150EA01347FF4E8
:1045600034AF95EA0C0F7FF425AF104619462CE7BF
:1045700095EA0C0F06D152EA03353FF4FDAE104622
:10458000194622E750EA410618BF52EA43067FF473
:10459000C5AE50EA41047FF40DAF52EA43057FF403
:1045A000EBAE12E74FF0FF3C06E000BF4FF0010C0E
:1045B00002E000BF4FF0010C4DF804CD4FEA410C72
:1045C0007FEA6C5C4FEA430C18BF7FEA6C5C1BD03F
:1045D00001B050EA410C0CBF52EA430C91EA030FC0
:1045E00002BF90EA020F0020704710F1000F91EA1D
:1045F000030F58BF994208BF90422CBFD8176FEAEB
:10460000E37040F0010070474FEA410C7FEA6C5CB8
:1046100002D150EA013C07D14FEA430C7FEA6C5CBF
:10462000D6D152EA033CD3D05DF8040B704700BFEB
:104630008446104662468C461946634600E000BF39
:1046400001B5FFF7B7FF002848BF10F1000F01BD0B
:104650004DF808EDFFF7F4FF0CBF012000205DF8D6
:1046600008FB00BF4DF808EDFFF7EAFF34BF01205B
:1046700000205DF808FB00BF4DF808EDFFF7E0FFF4
:1046800094BF012000205DF808FB00BF4DF808ED45
:10469000FFF7CEFF94BF012000205DF808FB00BFAC
:1046A0004DF808EDFFF7C4FF34BF012000205DF88E
:1046B00008FB00BF4FEA410212F5001215D211D5D6
:1046C0006FF47873B3EB625212D94FEAC12343F00F
:1046D000004343EA505311F0004F23FA02F018BF91
:1046E000404270474FF00000704750EA013005D15A
:1046F00011F0004008BF6FF0004070474FF000001D
:10470000704700BF4A0011D212F5001211D20DD528
:104710006FF47873B3EB62520ED44FEAC12343F0C7
:10472000004343EA505323FA02F070474FF0000071
:10473000704750EA013002D14FF0FF3070474FF020
:10474000000070472DE9F8439846234B06461C6845
:104750000F46D4F84801914618B904F5A670C4F87C
:10476000480141681F2916DD1C4818B94FF0FF3079
:10477000BDE8F8834FF4C87001F0A6FF0028F5D01B
:10478000D4F84821002545600260C4F84801C0F80B
:104790008851C0F88C51B6B14468012202FA04F283
:1047A000D0F8881100EB84031143022EC3F88890DF
:1047B000C0F888111C46C3F8088104D1D0F88C31A8
:1047C0001A43C0F88C2141688B1C4A1C40F82370A6
:1047D00042600020BDE8F883FC800800C96608003C
:1047E00070B5084B084C0025E01A841003EB8406D2
:1047F000043D1CB172599047013CF9E7BDE8704097
:1048000003F0CEBCAC810800B081080038B50E4D75
:104810000E4B0024E81A8510AC4205D00B4951F824
:10482000242090470134F7E703F0B0FC0849094A17
:10483000541AA5100024AC4205D0054B53F82400AF
:1048400080470134F7E738BD988108009881080057
:1048500098810800A08108000FB407B5064904AB91
:10486000086853F8042B8168019300F037FDBDE818
:104870000E4004B0704700BF180007200EB403B507
:1048800003AB53F8042B8168019300F027FDBDE8CA
:104890000C4003B0704700BF10B50023934203D013
:1048A000CC5CC4540133F9E710BD8218034693422F
:1048B00002D003F8011BFAE7704700290CBF02225F
:1048C00000224FF4806300F001B800002DE9F041B0
:1048D0001D46374B044618680E461746984618B1D1
:1048E000826B0AB901F0AEFA022F5DD8002D5BDBB6
:1048F0002146D8F8000001F0B3F9A189002001F0A9
:1049000080031AB26060A06122B129482169006861
:1049100001F0D6FBA189022F21F08303A38112D0DD
:1049200036BB002D08BF4FF48065284601F0CCFE51
:104930000646C8B94FF4806001F0C6FE064688B945
:104940004FF0FF3000E00020A189002241F0020377
:10495000A38104F143010123A2602160216163610D
:10496000BDE8F0814FF48065A28942F08000A0810B
:10497000012F05D1A1896A4241F00103A381A261FF
:104980000B48A28901680B4B02F0080000B2CB6310
:1049900026602661656148B112F0030F18BF00253B
:1049A000A5600020BDE8F0814FF0FF30BDE8F08148
:1049B00018000720B95D08000CB410B59CB01EAB00
:1049C000029106916FF0004153F8042B0491079176
:1049D0004FF6FF71ADF816104FF4027402A901935F
:1049E000ADF8144000F04AF8029B00221A701CB087
:1049F000BDE8104002B070470EB400B59CB0029004
:104A000006906FF000401DAB049007904FF40271C8
:104A10000A4853F8042BADF814104FF6FF71ADF8A7
:104A20001610006802A9019300F028F8029B0022EA
:104A30001A701CB05DF804EB03B070471800072033
:104A4000034613F8012B002AFBD1181A01387047CE
:104A500030B5013903461C463AB111F8015F013AFD
:104A600003F8015B1C46002DF5D199188C4203D048
:104A7000002204F8012BF9E730BD00002DE9F04FCA
:104A80001E468B89894603F0800114460AB2A9B0FC
:104A900083469AB1D9F8103083B9402101F024FE41
:104AA000C9F80000C9F8100028B90C22CBF8002082
:104AB0004FF0FF30DAE34020C9F81400002118ADB0
:104AC0000B950D910C91019405910491A846019BC1
:104AD0001C4613F8012B1AB90198251A03D11DE0C1
:104AE000252AF5D1F8E7019A0D9988E824000C9A57
:104AF0004B19501C07280D930C9002DC08F1080894
:104B000009E0584649460BAA02F0EAF9002840F0AD
:104B1000A2830DF1600804994B1904932278002AAE
:104B200000F092830022013401948DF827204FF089
:104B3000FF3C03921746019810F8013B0190632B4C
:104B400000F0B38033DC392B1ADC312B80F29180FA
:104B50002B2B01D11A46EEE70ADC232B55D02A2B4A
:104B600056D0202B40F0F581002A08BF2022E2E732
:104B70002E2B58D0302B79D02D2B40F0EA814FE0EE
:104B80004F2B00F0DE8007DC442B40F0E2818DF8F3
:104B9000272047F0100790E0552B00F01F81582B7D
:104BA00040F0D781AE4D8DF82720059530E16F2B71
:104BB00000F0C98010DC692B24D007DC642B21D0E5
:104BC000682B40F0C68147F04007B4E76C2B5FD0FC
:104BD0006E2B40F0BE8196E0732B00F0DF8006DC88
:104BE000702B00F0CD80712B40F0B3815AE0752B13
:104BF00000F0F680782B40F0AC819A4D8DF827209C
:104C0000059505E18DF8272057E047F0010792E769
:104C1000331D3668002E039615DA704203901E4647
:104C200047F0040787E7019911F8013B2A2B01910E
:104C30000BD1D6F800C0331DBCF1000F03DA1E46BD
:104C40004FF0FF3C77E71E4675E74FF0000CA3F1ED
:104C50003000092807D801990A2303FB0C0C11F82E
:104C6000013B0191F3E74CEAEC7C68E747F08007F1
:104C700061E701980021303B0A2404FB013110F860
:104C8000013BA3F13004092C0190F4D9039156E7BC
:104C900001990B786C2B02D1481C019002E047F07F
:104CA000100748E747F0200745E7326800258DF8F0
:104CB00038208DF82750043655E1BA0607D5073657
:104CC00026F0070505F10806D5E900450FE017F0C5
:104CD000100F06F1040101D0326805E017F0400F13
:104CE000326801D014B200E01446E5170E46002CDD
:104CF00075F1000280F2B8802D23644265EB450512
:104D00008DF82730B0E017F0200F8DF8272006F13E
:104D1000040205D0049C3568E0172C60686004E04C
:104D2000FB0604D53368049919601646CFE630684F
:104D3000049C17F0400F06F1040614BF04800460C1
:104D4000C5E647F0100717F0200008D0F31D23F048
:104D5000070505F10806D5E9004500207CE017F0BD
:104D6000100106F1040206D117F0400003D0348888
:104D700000251646F1E736680025344616466BE0F6
:104D8000384B302178223468002547F002078DF82F
:104D900028108DF82920043605935CE03146002563
:104DA000D1F800A00436AC458DF82750504611DBF1
:104DB00062462946CDF800C001F098FEDDF800C03B
:104DC000002800F0D480CAEB0004644540F3D18091
:104DD0006446CEE0FFF734FE0446CAE047F0100711
:104DE000BD0606D5F01D20F0070404F1080630CCFE
:104DF0000CE017F0100F06F1040303D17C0601D577
:104E0000348801E035682C4600251E46012023E049
:104E1000B80607D5F41D24F0070101F10806D1E911
:104E200000450CE017F0100F06F1040003D17906DD
:104E300001D5348801E03668344600250646FA0775
:104E400009D554EA050206D030228DF828208DF8C5
:104E5000293047F00207022000218DF8271004E0D6
:104E600022810800338108000120BCF1000FA8BF97
:104E700027F0800754EA050102D1BCF1000F58D099
:104E800001281DD002280DF15F0341D004F0070274
:104E9000E40844EA4570E90804460D46303254EA15
:104EA00005019A461A7003F1FF33EFD1F807554612
:104EB0004AD5302A48D030229A4605F8012C43E0E2
:104EC000002D08BF0A2C03D230348DF85F4036E045
:104ED0000DF15F030293204629460A220023CDF8F4
:104EE00000C002F0D9FD0298303200F801292946AD
:104EF0000A220023DDF808A00290204602F0CCFD33
:104F000004460D4654EA0501DDF800C0E3D11BE07C
:104F1000059904F00F0024090A5C44EA0570290988
:104F200004460D469A4603F8012954EA0502EFD1DA
:104F30000AE038B9F90705D530208DF85F000DF18A
:104F40005F0A01E00DF1600A18ADCAEB0504654681
:104F50000FE08DF82720002B00F0768100258DF8DA
:104F600038308DF8275001240DF1380A01E06446ED
:104F700005469DF82730AC42ACBF21462946029138
:104F800013B10298421C029217F00201069102D05E
:104F9000029B981C029017F0840207923CD103995F
:104FA000029BCB1A002B37DDA548102BC8F8000058
:104FB0001BDD0C9A10210D98C8F80410511C1030FC
:104FC00007290D900C9102DC08F108080BE0584607
:104FD00049460BAA009301F083FF009B002840F094
:104FE0003A810DF16008103BDEE70D9AC8F80430F5
:104FF000D1180C9B0D91581C07280C9002DC08F16D
:10500000080809E0584649460BAA01F069FF002844
:1050100040F021810DF160089DF82720DAB10DF1F3
:105020002701C8F800100C9901230D98C8F8043026
:105030004B1C421C072B0D920C9302DC08F1080854
:1050400009E0584649460BAA01F04AFF002840F003
:1050500002810DF160080698D0B10AAAC8F80020B4
:105060000C9A02210D9BC8F80410511C981C0729AA
:105070000D900C9102DC08F1080809E058464946F9
:105080000BAA01F02DFF002840F0E5800DF160082B
:10509000079B802B3CD10398029A831A002B37DDA3
:1050A0006849102BC8F800101BDD0C9810220D99D0
:1050B000C8F80420421C1031072A0D910C9202DC22
:1050C00008F108080BE0584649460BAA009301F086
:1050D00007FF009B002840F0BE800DF16008103BE8
:1050E000DEE70C9A0D98511CC8F8043007290344D8
:1050F0000D930C9102DC08F1080809E05846494676
:105100000BAA01F0EDFE002840F0A5800DF160082B
:105110002D1B002D34DD4B48102DC8F8000019DD83
:105120000C980D99431C10221031072BC8F804204D
:105130000D910C9302DC08F1080809E05846494635
:105140000BAA01F0CDFE002840F085800DF160082B
:10515000103DE0E70C9A0D9B511CC8F8045007293C
:105160001D440D950C9102DC08F1080808E0584632
:1051700049460BAA01F0B4FE00286CD10DF160087D
:105180000C9B0D985A1CC8F80440072A0444C8F820
:1051900000A00D940C9202DC08F1080307E05846C9
:1051A00049460BAA01F09CFE002854D118AB7A079F
:1051B0000BD40498029B039A0D999342ACBFC0187C
:1051C00080180490002936D02FE0039C0299641ABD
:1051D000002CEEDD1A48102C186015DD0C991020FB
:1051E0000D9A5860481C103207280D920C9001DC73
:1051F000083307E0584649460BAA01F071FE002823
:1052000029D118AB103CE5E70C9A5C600D9B511C52
:105210001C1907290D940C91CBDD584649460BAA61
:1052200001F05EFE0028C4D015E0584649460BAA9E
:1052300001F056FE78B900250C950DF1600846E4A2
:1052400002810800128108000D9820B15846494695
:105250000BAA01F045FEB9F80C20049B02F04001B6
:1052600008B2002818BF4FF0FF33184629B0BDE838
:10527000F08F00BF93682DE9F04781460F46144632
:105280001BB953601846BDE8F0874B6E9B041ED5D2
:105290001568A0680835C8B155F8041C55F808AC65
:1052A0004FEA91080026464509DA48465AF8261082
:1052B0003A4600F043FE431C0BD00136F3E7A268E8
:1052C0004FEA8808C8EB0203A360E2E701E000F0C0
:1052D000ADFF0021A1606160BDE8F0872DE9F04FCE
:1052E0008946A9B014461D461E46824618B1836BF6
:1052F0000BB900F0A7FDB9F80C0000F4005211B290
:1053000049B940F40053D9F86400A9F80C3020F4EE
:105310000052C9F86420B9F80C1001F0080318B263
:1053200048B1D9F8102032B1B9F80C1001F01A03C5
:105330000A2B16D109E05046494600F025FC00280A
:10534000F2D04FF0FF320392D3E3B9F90E000028F8
:1053500007DB5046494622462B4600F0CEFB039021
:10536000C7E3002218AD0B950D920C9201940592A3
:105370000392A84601990C4611F8013B0BB1252B6D
:10538000F9D1019AA51A19D00C990D984B1C88E8EF
:105390002400072B00EB05020D9208F108080C937E
:1053A00009DD504649460BAAFFF764FF002840F08C
:1053B00098830DF16008039842190392217800291F
:1053C00000F088830022013401948DF827204FF0EB
:1053D000FF3C04921746019810F8013B0190632BA3
:1053E00000F0B38033DC392B1ADC312B80F2918052
:1053F0002B2B01D11A46EEE70ADC232B55D02A2BA2
:1054000056D0202B40F0F581002A08BF2022E2E789
:105410002E2B58D0302B79D02D2B40F0EA814FE045
:105420004F2B00F0DE8007DC442B40F0E2818DF84A
:10543000272047F0100790E0552B00F01F81582BD4
:1054400040F0D781AE4D8DF82720059530E16F2BC8
:1054500000F0C98010DC692B24D007DC642B21D03C
:10546000682B40F0C68147F04007B4E76C2B5FD053
:105470006E2B40F0BE8196E0732B00F0DF8006DCDF
:10548000702B00F0CD80712B40F0B3815AE0752B6A
:1054900000F0F680782B40F0AC819A4D8DF82720F3
:1054A000059505E18DF8272057E047F0010792E7C1
:1054B000331D3668002E049615DA704204901E469D
:1054C00047F0040787E7019911F8013B2A2B019166
:1054D0000BD1D6F800C0331DBCF1000F03DA1E4615
:1054E0004FF0FF3C77E71E4675E74FF0000CA3F145
:1054F0003000092807D801990A2303FB0C0C11F886
:10550000013B0191F3E74CEAEC7C68E747F0800748
:1055100061E701980021303B0A2404FB013110F8B7
:10552000013BA3F13004092C0190F4D9049156E712
:1055300001990B786C2B02D1481C019002E047F0D6
:10554000100748E747F0200745E7326800258DF847
:1055500038208DF82750043655E1BA0607D50736AE
:1055600026F0070505F10806D5E900450FE017F01C
:10557000100F06F1040101D0326805E017F0400F6A
:10558000326801D014B200E01446E5170E46002C34
:1055900075F1000280F2B8802D23644265EB450569
:1055A0008DF82730B0E017F0200F8DF8272006F196
:1055B000040205D0039C3568E0172C60686004E0A5
:1055C000FB0604D53368039919601646D2E63068A5
:1055D000039C17F0400F06F1040614BF048004601A
:1055E000C8E647F0100717F0200008D0F31D23F09D
:1055F000070505F10806D5E9004500207CE017F015
:10560000100106F1040206D117F0400003D03488DF
:1056100000251646F1E736680025344616466BE04D
:10562000384B302178223468002547F002078DF886
:1056300028108DF82920043605935CE031460025BA
:10564000D1F800B00436AC458DF82750584611DB30
:1056500062462946CDF800C001F048FADDF800C0E6
:10566000002800F0D480CBEB0004644540F3D180E7
:105670006446CEE0FFF7E4F90446CAE047F01007BD
:10568000BD0606D5F01D20F0070404F1080630CC55
:105690000CE017F0100F06F1040303D17C0601D5CE
:1056A000348801E035682C4600251E46012023E0A1
:1056B000B80607D5F41D24F0070101F10806D1E969
:1056C00000450CE017F0100F06F1040003D1790635
:1056D00001D5348801E03668344600250646FA07CD
:1056E00009D554EA050206D030228DF828208DF81D
:1056F000293047F00207022000218DF8271004E02E
:1057000022810800338108000120BCF1000FA8BFEE
:1057100027F0800754EA050102D1BCF1000F58D0F0
:1057200001281DD002280DF15F0341D004F00702CB
:10573000E40844EA4570E90804460D46303254EA6C
:1057400005019B461A7003F1FF33EFD1F8075D4660
:105750004AD5302A48D030229B4605F8012C43E038
:10576000002D08BF0A2C03D230348DF85F4036E09C
:105770000DF15F030293204629460A220023CDF84B
:1057800000C002F089F90298303200F80129294658
:105790000A220023DDF808B00290204602F07CF9CE
:1057A00004460D4654EA0501DDF800C0E3D11BE0D4
:1057B000059904F00F0024090A5C44EA05702909E0
:1057C00004460D469B4603F8012954EA0502EFD131
:1057D0000AE038B9F90705D530208DF85F000DF1E2
:1057E0005F0B01E00DF1600B18ADCBEB05046546D6
:1057F0000FE08DF82720002B00F06C8100258DF83C
:1058000038308DF8275001240DF1380B01E0644643
:1058100005469DF82730AC42ACBF2146294602918F
:1058200013B10298421C029217F00201069102D0B5
:10583000029B981C029017F0840207923AD10499B7
:10584000029BCB1A002B35DDA048102BC8F80000B6
:105850001ADD0C9910200D9AC8F80400481C10326B
:1058600007280D9208F108080C900BDD50464946B8
:105870000BAA0093FFF7FEFC009B002840F031814B
:105880000DF16008103BDFE70D9AC8F80430D1181D
:105890000C9B0D91581C072808F108080C9009DD95
:1058A000504649460BAAFFF7E5FC002840F0198155
:1058B0000DF160089DF82720D2B10DF12701C8F83D
:1058C00000100C9901230D98C8F804304B1C421CA1
:1058D000072B0D9208F108080C9309DD5046494644
:1058E0000BAAFFF7C7FC002840F0FB800DF1600811
:1058F0000698C8B10AAAC8F800200C9A02210D9B8C
:10590000C8F80410511C981C07290D9008F10808CC
:105910000C9109DD504649460BAAFFF7ABFC002865
:1059200040F0DF800DF16008079B802B3AD104988E
:10593000029A831A002B35DD6549102BC8F8001038
:105940001ADD0C9A10210D98C8F80410511C103063
:1059500007290D9008F108080C910BDD50464946C7
:105960000BAA0093FFF786FC009B002840F0B9804B
:105970000DF16008103BDFE70C9A0D98511CC8F838
:105980000430072903440D9308F108080C9109DD40
:10599000504649460BAAFFF76DFC002840F0A18055
:1059A0000DF160082D1B002D32DD4948102DC8F87F
:1059B000000018DD0C9A0D98531C10211030072B95
:1059C000C8F804100D9008F108080C9309DD504642
:1059D00049460BAAFFF74EFC002840F082800DF1EB
:1059E0006008103DE1E70C9A0D9B511CC8F804506B
:1059F00007291D440D9508F108080C9108DD504653
:105A000049460BAAFFF736FC00286AD10DF1600861
:105A10000C9A0D98511CC8F8044007290444C8F892
:105A200000B00D9408F108030C9107DD504649467B
:105A30000BAAFFF71FFC002853D118AB7A070BD431
:105A4000039B029A04990D988A42ACBF9B185B187D
:105A50000393002835D02EE0049C0298241A002CD1
:105A6000EEDD1A4A102C1A6014DD0C9810220D99E4
:105A70005A60421C10310833072A0D910C9207DD41
:105A8000504649460BAAFFF7F5FB002829D118AB71
:105A9000103CE6E70C995C600D9B481C1C1907281C
:105AA0000D940C90CCDD504649460BAAFFF7E2FB63
:105AB0000028C5D015E0504649460BAAFFF7DAFB8F
:105AC00078B900250C950DF1600853E44481080075
:105AD000548108000D9A22B1504649460BAAFFF79F
