:0200000280007C
:10000000C0AB0720C12F0800BD2F0800BD2F08007E
:10001000BD2F0800BD2F0800BD2F08000000000004
:10002000000000000000000000000000350708008C
:10003000BD2F080000000000C507080001080800E7
:10004000BD2F0800BD2F0800BD2F0800BD2F0800E0
:10005000BD2F0800BD2F0800BD2F0800BD2F0800D0
:10006000BD2F0800BD2F080000000000892D0800EA
:10007000A52D0800C12D0800DD2D0800000000009E
:1000800000000000BD2F0800BD2F0800BD2F080094
:10009000BD2F0800BD2F0800BD2F0800BD2F080090
:1000A000BD2F080000000000BD2F0800BD2F080074
:1000B000BD2F0800BD2F0800BD2F0800BD2F080070
:1000C000BD2F0800BD2F0800BD2F0800BD2F080060
:1000D000BD2F0800BD2F0800BD2F0800BD2F080050
:1000E000BD2F0800BD2F0800BD2F0800BD2F080040
:1000F000BD2F080008B50548054B191A062900D878
:1001000008BD044A002AFBD09047F9E70C9E08007E
:100110000F9E08000000000008B50748074B191A99
:100120008A1002EBD273591000D108BD044A002A8C
:10013000FBD09047F9E700BF0C9E08000C9E08001A
:100140000000000010B5064C237843B9FFF7D2FF3A
:10015000044810B10448AFF300800121217010BDA4
:10016000D8080720000000000C9E080008B5084BC6
:100170001BB108480849AFF300800848016811B175
:10018000074A02B19047BDE80840FFF7C5BF00BF6E
:10019000000000000C9E0800DC0807200C9E0800F0
:1001A000000000004FF001030360704721B1426876
:1001B00042F01003436003E0436823F01001416004
:1001C0004FF00000704700BF01627047436801298B
:1001D00007D823F4981242EA014141604FF0000031
:1001E00070474FF00100704710B4446824F07C540D
:1001F00024F47F444FEA016144EA114412B144F40B
:10020000001401E024F400144FEA036303F07C526D
:10021000144344604FF0000010BC7047012907D818
:100220004FF0010303FA01F101614FF00000704744
:100230004FF00100704700BF2DE9F84341F2AD488F
:10024000C0F2080840F6F404C2F2070448F6A827F2
:10025000C2F2070740F6AD66C0F2080649F67839E3
:10026000C0F20809C047208038684FF000014FF6FF
:10027000FF720B46B04710B3484648F62E33C2F221
:100280000703198844F26D65C0F20805A84748467F
:1002900048F64831C2F207010988A84749F67C3080
:1002A000C0F2080048F62832C2F207021168A847D7
:1002B000484648F65433C2F207031988A847204637
:1002C0004FF4FA7141F6B905C0F20805A847C9E72D
:1002D00010B5044649F68033C0F2080353F82000F5
:1002E00042F63971C0F20801884749F68C30C0F2F5
:1002F000080050F8240040F6F804C2F20704206019
:100300004FF000010A4640F25953C0F208039847E3
:1003100020684FF0000140F27552C0F20802904789
:1003200020684FF0000140F28953C0F2080398475B
:1003300010BD00BFF8B5044640F6F803C2F207034B
:1003400018684FF0000140F27D52C0F20802904759
:100350004FF02A0707FB04F740F6F806C2F207063B
:100360004FF0000540F29554C0F208043068294669
:10037000A047B842FAD340F6F800C2F2070000687E
:100380004FF0000140F28953C0F208039847F8BDCE
:100390002DE9F8430C46904648BB002A2BDD8F1808
:1003A00048F6A036C2F2070648F69835C2F20705AD
:1003B0006FEA010907EB090000F0010930682B68BA
:1003C000984704F10104BC4219D10DE030682B6854
:1003D0002146984704F10104214630682A68904775
:1003E00004F10104BC42F1D14046BDE8F8834FF06E
:1003F000FF30BDE8F8834FF00000BDE8F883B9F1A5
:10040000000FE3D030682A682146904704F10104C8
:10041000BC42DBD1E8E700BF2DE9F8430D4690462A
:1004200000F1FF30022824D832B348F6A036C2F2D9
:10043000070648F69C37C2F207074FF0000402F1A6
:10044000FF3909F0010930683B68095D9847A0420F
:100450001ADA14E030683B68295D984700280EDB03
:1004600004F1010430683A68295D904700281DDADC
:1004700005E04FF0FF3404E04FF0000401E04FF0DE
:10048000FF342046BDE8F88304F10104A045F8D00C
:10049000B9F1000FDED030683A68295D9047002836
:1004A000EDDB04F10104A045D4D1EAE704F1010435
:1004B000A045CFD1E5E700BF30B44FF001040460A0
:1004C0004FF00004446040F20225C0F82051C0F80B
:1004D0000441C0F8144145682B434FEA4202B1FB86
:1004E000F2F101F1FF324FEA026143EA1143436046
:1004F000204630BC704700BF43684FEA011101F04D
:100500001002134343607047436819434FEAC21215
:10051000D3B219434160704710B4446822434FEA94
:10052000016101F0706422434FEA037303F040510C
:100530000A43426010BC70474FF0020303607047EB
:100540000F2904D801F1140150F8210070474FF031
:1005500000007047006B704710B44FEA81114318D8
:100560004FF0020444504FF0FF309862196A5A600D
:1005700010BC7047C0F8C410704700BF4FEA81112B
:100580004FF00503435070474FEA81114FF00203CB
:100590004350704700EB81110869704710B44FF069
:1005A000AC0303600A684C68B2FBF4F34FEA131320
:1005B00003F1FF344FF6FE7294420CD8036289684F
:1005C000416040F20223C0F820314FF05002026037
:1005D0004FF0000001E04FF0010010BC704700BF79
:1005E000436913F0020F03D0C1614FF00000704760
:1005F0004FF00100704700BF436913F0010F04D0B2
:10060000806908704FF0000070474FF0010070479C
:10061000436913F0020F07D04FEAC1514FEAD1529C
:10062000C2614FF0000070474FF00100704700BFFB
:10063000436913F0010F08D080694FEAC0524FEAB6
:10064000D2530B604FF0000070474FF0010070472D
:1006500000F1080343604FF6FF720281C36003613B
:100660004FF00001016070474FF0000303617047D5
:1006700043685A684A6042688A605A689160596063
:1006800041600861016801F101010160704700BF2C
:1006900010B40C884FF6FF739C4201D103690CE043
:1006A00000F10803C268128892B2944205D35B68D5
:1006B0005A68128892B29442F9D25A684A6091609C
:1006C0008B6059600861016801F10101016010BC93
:1006D000704700BF436882689A60816843684B60D6
:1006E00001694A68824204BF82684A604FF0000391
:1006F0000361086800F1FF320A600868704700BFB4
:1007000003480068006880F3088862B600DF00BF15
:1007100008ED00E04FF0807340F8043C40F8081CFE
:100720004FF0000140F80C1C40F8202CA0F14000D4
:10073000704700BF064B19680868B0E8F00F80F3F7
:1007400009884FF0000080F311884EF00D0E7047BD
:10075000288A07204EF60453CEF200034FF0805251
:100760001A607047EFF311804FF0A00181F31188F8
:1007700070474FF0000000BF08B540F26573C0F24B
:100780000803984740F20000C2F20700026802F135
:100790000102026008BD00BF80F31188704700BFEE
:1007A00008B540F20002C2F20702136803F1FF30FD
:1007B000106030B94FF0000040F29971C0F20801AA
:1007C000884708BDEFF309800C4B1A6820E9F00F49
:1007D00010602DE908404FF0A00080F3118801F06F
:1007E000C9F84FF0000080F31188BDE8084019688F
:1007F0000868B0E8F00F80F309887047288A07205E
:1008000008B54EF60453CEF200034FF080521A6042
:1008100040F26570C0F20800804741F2D541C0F255
:10082000080188474FF0000040F29973C0F20803B6
:10083000984708BD4EF21403CEF2000344F61F029F
:10084000C0F201021A604EF21000CEF200004FF02A
:1008500007010160704700BF10B54EF62053CEF27D
:1008600000031A6842F470001860196841F070447F
:100870001C6040F63503C0F2080398474FF00004AF
:1008800040F20002C2F20702146040F20170C0F2AE
:1008900008008047204610BD30B448F60412C2F26A
:1008A000070200E01A4613688342FBD311465468DE
:1008B0001519854203D168680419546010464268CE
:1008C0008418A3420FD148F60014C2F2070424682A
:1008D0009C4206D05B689A1842600B681A680260F6
:1008E00002E0036000E00360814218BF086030BC92
:1008F000704700BF38B5044641F29943C0F208037F
:10090000984748F60010C2F20700016811BB48F68C
:100910000412C2F2070240F60013C2F2070313608A
:100920004FF00001516003F5FF4202F1700048F6FC
:100930000015C2F2070528605167116747F6F0718C
:100940005960186040F20403C2F207031A68A2F16A
:1009500010021A60002C3CD004F1100212F0070FB4
:100960001CBF22F00702083202F1FF3047F6FE7585
:10097000A84231D848F60411C2F207010C6801E020
:100980002146044663689A4202D920680028F7D1BC
:1009900048F60015C2F207052B689C421FD00D686F
:1009A00005F110052068086061688B1A202B07D9B3
:1009B000A0184360626040F69902C0F208029047B6
:1009C00040F20400C2F20700036861685A1A02602C
:1009D00007E04FF0000504E04FF0000501E04FF0A4
:1009E000000541F27160C0F208008047284638BD1A
:1009F00010B50446C8B141F29943C0F208039847C4
:100A000040F20400C2F20700016854F80C2C8B1865
:100A10000360A4F1100040F69901C0F20801884774
:100A200041F27160C0F20800804710BDF8B504467D
:100A300040F27973C0F208039847A06C00281ADDD1
:100A4000616A19B917E0616A51B914E004F124062A
:100A500041F60535C0F2080541F69147C0F2080796
:100A60003046A84700B1B847A26C02F1FF33A36437
:100A7000A06C0028E7DC4FF0FF32A26440F2A173C3
:100A8000C0F20803984740F27970C0F2080080472E
:100A9000616C00291ADD22691AB917E0226952B97E
:100AA00014E004F1100641F60535C0F2080541F6E0
:100AB0009147C0F208073046A84700B1B847636CB9
:100AC00003F1FF306064616C0029E7DC4FF0FF3315
:100AD000636440F2A170C0F208008047F8BD00BF17
:100AE00038B50346056875B1026CC468A418C460C3
:100AF0004068844228BFDD600846D96844F2AD638F
:100B0000C0F20803984738BD10B50446036C63B9BA
:100B1000016800292ED1406841F67D53C0F20803D8
:100B200098474FF00000606024E082B980681A4660
:100B300044F2AD63C0F208039847A268216C5018D4
:100B4000A0606368984215D32268A26012E0C06872
:100B50001A4644F2AD63C0F208039847226CC2F112
:100B60000000E1680B18E3602268934202D26168DA
:100B70000818E060A26B02F10102A26310BD00BF81
:100B800038B50D46044630B940F26574C0F2080429
:100B9000A04700BFFDE740F27973C0F20803984711
:100BA0002368E06B226C00FB023161604FF00001B2
:100BB000A163A36000F1FF3002FB0033E3604FF05C
:100BC000FF326264A26485B92169C1B104F11000E9
:100BD00041F60533C0F20803984701280FD140F2CF
:100BE0005570C0F20800804709E004F1100040F29F
:100BF0005165C0F20805A84704F12400A84740F257
:100C0000A172C0F2080290474FF0010038BD00BF4A
:100C1000F8B50D4617460646E0B14FF0500040F6D5
:100C2000F503C0F208039847044698B106FB05F0A7
:100C300000F1010040F6F501C0F20801884720608C
:100C400070B9204640F6F112C0F20802904701E068
:100C500000BFFDE740F26570C0F208008047F7E78B
:100C6000E663256420464FF0010140F68133C0F26F
:100C70000803984784F84D702046F8BD2DE9F04FE1
:100C800085B08A469B46ADF80620044630B940F24E
:100C90006574C0F20804A04700BFFDE741B9036CCA
:100CA0004BB140F26570C0F20800804700BFFDE71D
:100CB0004FF0000701E04FF0000740F27976C0F2F4
:100CC000080641F6AD31C0F20801009140F2A1756D
:100CD000C0F20805B047A26BE36B9A421FD22046D0
:100CE00051465A4640F60933C0F208039847616AF4
:100CF00069B104F1240041F60532C0F208029047C0
:100D0000012804D140F25570C0F20800804740F23B
:100D1000A173C0F2080398474FF001006AE0BDF8E4
:100D2000060038B940F2A173C0F2080398474FF0AB
:100D300000005FE027B902A8009FB8474FF0010705
:100D4000A84741F29941C0F208018847B047626C58
:100D5000B2F1FF3F04BF00226264A36CB3F1FF3F16
:100D600004BF0023A364A84702A80DF1060141F6C1
:100D7000DD32C0F20802904778BBB047D4F8389013
:100D8000D4F83C80A847C1451BD104F11000BDF840
:100D9000061041F63523C0F208039847204640F676
:100DA0002D21C0F20801884741F27160C0F20800AD
:100DB000804700288ED140F25572C0F20802904759
:100DC00088E7204640F62D23C0F20803984741F2F9
:100DD0007162C0F2080290477CE7204640F62D2160
:100DE000C0F20801884741F27160C0F208008047F4
:100DF0004FF0000005B0BDE8F08F00BF2DE9F041D5
:100E00000E4615469846044630B940F26575C0F264
:100E10000805A84700BFFDE741B9036C33B140F2B4
:100E20006570C0F20800804700BFFDE740F26571C1
:100E3000C0F2080188470746A26BE36B9A4221D2B1
:100E400020463146424640F60933C0F2080398472F
:100E5000A06CB0F1FF3F0ED1626AB2B104F1240080
:100E600041F60534C0F20804A04788B19DB14FF0A7
:100E700001042C6011E0A16C01F10101A1644FF0AB
:100E800001040AE04FF0000407E04FF0010404E021
:100E90004FF0010401E04FF00104384640F299732D
:100EA000C0F2080398472046BDE8F0812DE9F04FD5
:100EB00085B089469A46ADF80620044630B940F21E
:100EC0006574C0F20804A04700BFFDE741B9036C98
:100ED0004BB140F26570C0F20800804700BFFDE7EB
:100EE0004FF0000701E04FF0000740F27976C0F2C2
:100EF000080641F6AD3BC0F2080B40F2A175C0F206
:100F00000805B047A16B00293FD0E5682046494657
:100F100040F6E123C0F208039847BAF1000F1CD154
:100F2000A36B03F1FF30A063216829B941F6A14208
:100F3000C0F20802904760602369F3B104F1100029
:100F400041F60531C0F208018847012815D140F269
:100F50005570C0F2080080470FE0E560606A60B13C
:100F600004F1240041F60531C0F20801884720B1A0
:100F700040F25572C0F20802904740F2A172C0F2EE
:100F8000080290474FF0010074E0BDF806203AB91E
:100F900040F2A172C0F2080290474FF0000069E0F1
:100FA0001FB902A8D8474FF00107A84741F299435B
:100FB000C0F208039847B047606CB0F1FF3F04BF30
:100FC00000206064A16CB1F1FF3F04BF0021A16467
:100FD000A84702A80DF1060141F6DD32C0F2080271
:100FE0009047002839D1B047D4F83880A847B8F1E5
:100FF000000F26D123683BB9B047606841F6D54160
:10100000C0F208018847A84704F12400BDF8061083
:1010100041F63522C0F208029047204640F62D23C3
:10102000C0F20803984741F27160C0F2080080479F
:1010300000287FF466AF40F25571C0F2080188477E
:101040005FE7204640F62D21C0F20801884741F2B3
:101050007162C0F20802904753E7204640F62D2304
:10106000C0F20803984741F27160C0F2080080475F
:101070004FF0000005B0BDE8F08F00BF38B5044662
:101080000D4640F27973C0F208039847606CB0F1E6
:10109000FF3F04BF00206064A16CB1F1FF3F04BFBB
:1010A0000021A16440F2A172C0F208029047A36B34
:1010B0003BB904F12400294641F6AD22C0F20802F2
:1010C0009047204640F62D21C0F20801884738BDE0
:1010D00010B5044648F62823C2F207031868848036
:1010E00048F64421C2F207010A8893B29C4211D209
:1010F00048F64823C2F20703186848F62821C2F2CE
:101100000701096801F1040140F29162C0F208028E
:10111000904710BD48F62410C2F20700006848F658
:101120002821C2F20701096801F1040140F291622D
:10113000C0F20802904740F20803C2F20703188881
:1011400081B28C4204D240F20802C2F2070214803B
:1011500010BD00BF2DE9F84F0F4690469A460A9DF4
:101160000C9E814630B940F26577C0F20807B84757
:1011700000BFFDE7092D06D940F26575C0F20805EC
:10118000A84700BFFDE74FF0500040F6F503C0F25E
:10119000080398470446002800F03681002E40F0EE
:1011A00031814FEA880040F6F501C0F20801884716
:1011B0000646206330B9204640F6F112C0F208021C
:1011C000904721E130464FF0A5014FEA880244F2F2
:1011D000BF66C0F20806B04708F1FF38206B00EB8D
:1011E000880222F0070B04F1340039464FF0100258
:1011F00044F66507C0F20807B8474FF0000384F8CB
:101200004330092D34BF2E460926E662E66404F118
:101210000407384640F26968C0F20808C04704F184
:101220001800C0472461C6F10A0626836462584646
:101230004946524640F21573C0F2080398472060B1
:1012400010F0070F06D040F26574C0F20804A04702
:1012500000BFFDE70B9901B10C6040F27970C0F25C
:101260000800804748F66823C2F207031A6802F1B3
:1012700001021A6048F62821C2F207010868002816
:1012800058D148F62821C2F207010C6048F66820C0
:10129000C2F207000368012B5FD148F65C19C2F265
:1012A0000709484640F25166C0F20806B04709F106
:1012B0001400B04709F12800B04709F13C00B047DD
:1012C00009F15000B04709F16400B04709F1780016
:1012D000B04709F18C00B04709F1A000B04709F10F
:1012E000B400B04748F65029C2F207094846B04753
:1012F00048F64418C2F207084046B04748F62C208A
:10130000C2F20700B04748F63010C2F20700B047FB
:1013100048F61010C2F20700B04748F62412C2F295
:101320000702C2F8009048F64821C2F20701C1F84E
:10133000008012E048F62813C2F207031A6862B967
:1013400048F62821C2F207010868C36A9D4204D307
:1013500048F62822C2F207021460E06A48F66C23BD
:10136000C2F207031A68904204D948F66C21C2F20F
:101370000701086048F64C23C2F207031A6862644A
:1013800002F101021A6048F65811C2F207010B6817
:10139000984204D948F65812C2F20702106000EBD6
:1013A000800148F65C100346C2F2070303EB81009C
:1013B000394640F27162C0F20802904740F2A171D2
:1013C000C0F20801884748F62810C2F207000368F7
:1013D00083B148F62822C2F207021168C86A854222
:1013E0000CD940F25573C0F2080398474FF0010042
:1013F000BDE8F88F4FF00100BDE8F88F4FF0010015
:10140000BDE8F88F0663DDE64FF0FF30BDE8F88FEA
:1014100010B584B04FF0000300930193029303933F
:1014200041F2BD70C0F2080049F6AC31C0F20801CB
:101430004FF4807241F25514C0F20804A04701280D
:101440001FD141F6BD63C0F208039847012818D1A7
:1014500040F26571C0F20801884748F62813C2F2CD
:1014600007034FF001021A6048F64420C2F2070059
:101470004FF00001018040F65903C0F2080398477D
:1014800007E030B940F26570C0F20800804700BF45
:10149000FDE704B010BD00BF48F62423C2F20703E5
:1014A0001A6802F101021A60704700BF10B540F2DD
:1014B0007973C0F20803984748F64420C2F2070047
:1014C0000488A4B240F2A171C0F208018847204606
:1014D00010BD00BF2DE9F84F48F62423C2F20703E0
:1014E0001868002840F0B98048F64423C2F2070388
:1014F000188800F1010081B219801A8893B2002B7C
:1015000039D148F62410C2F2070001680A6832B1E6
:1015100040F26575C0F20805A84700BFFDE748F630
:101520002413C2F20703196848F64822C2F20702E0
:1015300010681860116048F64022C2F20702116874
:1015400001F1010111601B68186838B940F2080305
:10155000C2F207034FF6FF7018800CE048F6241221
:10156000C2F207021168CB68D868828840F208018D
:10157000C2F207010A8048F64422C2F2070211882B
:1015800088B240F20803C2F207031A8891B2884277
:101590006BD348F62410C2F2070003681A6882B1C0
:1015A00048F62414C2F207042168C868C468A388F6
:1015B00048F64422C2F20702118888B283421BD93E
:1015C00013E040F20803C2F207034FF6FF711980DF
:1015D000BDE8F88F3468E268D468A3884846C2F250
:1015E000070001888AB293421CD940F20800C2F277
:1015F00007000380BDE8F88F40F2D567C0F2080706
:1016000048F65818C2F2070848F65C1BC2F2070BEE
:1016100040F2716AC0F2080A48F62416C2F20706C0
:1016200048F6442904F104052846B847A36A13B1D3
:1016300004F11800B847E16AD8F80020914288BF49
:10164000C8F8001001EB81000BEB80002946D04761
:10165000336819680029BDD1B3E748F60C11C2F20E
:1016600007010A6802F101020A60BDE8F88F00BFB5
:101670002DE9F04748F62423C2F20703186830B971
:1016800040F26575C0F20805A84700BFFDE740F2CB
:101690007971C0F20801884748F62424C2F2070491
:1016A000226802F1FF3323602068002878D148F6D1
:1016B0006821C2F207010C684CBB4FF0000474E0D3
:1016C000D8F80C20D46804F11800B84704F10409D4
:1016D0004846B847E36A3068834288BF3360514662
:1016E000C2F2070103EB830201EB8200494640F29C
:1016F0007163C0F20803984748F62820C2F2070039
:101700000168E46ACA6A944228BF01250FE04FF0DD
:10171000000548F62C28C2F2070840F2D567C0F24F
:10172000080748F65816C2F2070648F65C1AD8F8B9
:101730000020002AC4D148F60C13C2F2070318682F
:10174000B0B148F60C12C2F207021368CBB141F2F5
:10175000D545C0F2080548F60C14C2F20704A847A4
:10176000206800F1FF3121602268002AF7D108E0EB
:10177000012D06D048F66421C2F207010C68012C45
:1017800011D148F66423C2F207034FF000041C6035
:1017900040F25570C0F2080080474FF0010404E0A9
:1017A0004FF0000401E04FF0000440F2A171C0F2DC
:1017B000080188472046BDE8F08700BF2DE9F843BF
:1017C00048F62C15C2F2070541F29948C0F2080804
:1017D00048F63016C2F2070641F271672DE0C047A5
:1017E00034683B46C0F20803984734B340F279703E
:1017F000C0F208008047F168CC6804F1040040F2B0
:10180000D562C0F20802904748F66823C2F2070387
:10181000186800F1FF3119602A6802F1FF332B606C
:1018200040F2A170C0F208008047206B40F6F11929
:10183000C0F20809C8472046C8472B68002BCED104
:1018400048F65C10C2F2070001680129F5D940F2A0
:101850005572C0F208029047EFE700BF10B504468A
:1018600018B341F29943C0F20803984748F6442060
:10187000C2F2070001886418A4B248F62822C2F216
:101880000702106800F1040040F2D563C0F20803BB
:101890009847204641F2D101C0F20801884741F241
:1018A0007160C0F20800804720B940F25572C0F262
:1018B0000802904710BD00BF38B50C46054630B948
:1018C00040F26574C0F20804A04700BFFDE731B9DB
:1018D00040F26575C0F20805A84700BFFDE741F278
:1018E0009943C0F208039847288801198CB248F63A
:1018F0004422C2F20702138899B288420BD9A0424F
:1019000034D948F64421C2F20701088882B22C80FB
:1019100094421DD90AE0A04226D848F64420C2F2DB
:101920000700028893B29C421ED81FE048F6282385
:10193000C2F20703186800F1040040F2D561C0F25A
:1019400008018847204641F2D102C0F208029047C0
:1019500041F27160C0F20800804748B940F2557307
:10196000C0F20803984738BD2C80DFE72C80EFE7F2
:1019700038BD00BF08B548F62423C2F20703186833
:10198000A8B948F65811C2F207010A6802EB8203AF
:101990004FEA830048F65C11C2F207010A5852BBB5
:1019A00048F65813C2F20703186888B909E048F6E8
:1019B0006421C2F207014FF00100086008BD1A68F7
:1019C00072B940F26573C0F20803984700BFFDE7A3
:1019D00048F65813C2F2070348F65C11C2F2070139
:1019E0001A6802F1FF3018601A6802EB820051F8A1
:1019F0002020002AE3D048F65813C2F207031968E2
:101A000001EB810048F65C12C2F2070202EB800390
:101A100059684868586003F10802904204BF406862
:101A200058605B68D96848F62820C2F20700016058
:101A300008BD00BF38B50C4630B940F26574C0F23D
:101A40000804A04700BFFDE748F62825C2F20705B5
:101A5000296801F1180140F29162C0F20802904732
:101A6000286800F1040040F2D561C0F208018847FF
:101A70004FF6FF7084420CD1296848F61010C2F26C
:101A8000070001F1040140F27162C0F208029047C0
:101A900038BD48F64423C2F207031A88A11888B259
:101AA00041F2D103C0F20803984738BD38B50D465E
:101AB00030B940F26574C0F20804A04700BFFDE7EA
:101AC00048F62824C2F20704216801F1180140F207
:101AD0007162C0F208029047206800F1040040F2F1
:101AE000D561C0F20801884748F64420C2F20700D9
:101AF0000388EA1890B241F2D101C0F20801884788
:101B000038BD00BF38B5C368DC6834B940F26574CD
:101B1000C0F20804A04700BFFDE704F118052846FD
:101B200040F2D561C0F20801884748F62420C2F28D
:101B30000700026822BB04F10405284640F2D56183
:101B4000C0F208018847E06A48F65812C2F207025C
:101B50001368984204D948F65811C2F20701086088
:101B600000EB800348F65C100246C2F2070202EB6B
:101B70008300294640F27163C0F20803984709E0E8
:101B800048F62C20C2F20700294640F27163C0F2E9
:101B90000803984748F62821C2F207010A68E06A5C
:101BA000D36A984234BF0020012038BD08B50346EF
:101BB00030B940F26573C0F20803984700BFFDE7F3
:101BC00048F64022C2F207021068186048F6442125
:101BD000C2F207010A889A8008BD00BF38B50D46D9
:101BE000044630B940F26573C0F20803984700BF5D
:101BF000FDE731B940F26575C0F20805A84700BF9E
:101C0000FDE740F27973C0F20803984728884FF641
:101C1000FF7290422CD048F64021C2F207010B68B7
:101C200022689A4208D048F64421C2F207010B8884
:101C30009AB2A18891421ED948F64423C2F2070302
:101C40001988A2888B1A99B2884217D948F644237A
:101C5000C2F2070319888BB2D21A80182880204656
:101C600041F6AD34C0F20804A0474FF0000407E08D
:101C70004FF0000404E04FF0010401E04FF00104D4
:101C800040F2A171C0F208018847204638BD00BF6C
:101C900048F66423C2F207034FF001021A6070474E
:101CA00048F62823C2F207031868704748F628133D
:101CB000C2F20703186848B148F62421C2F20701AE
:101CC0000A68002A14BF0220012070474FF000006C
:101CD000704700BF38B5044600284ED0C36A48F6A6
:101CE0002822C2F207021068C16A8B4245D248F628
:101CF0002822C2F207021068C16AC1F10A022283D7
:101D000003EB830348F65C10C2F2070000EB83018B
:101D100062698A422AD104F10405284640F2D5625C
:101D2000C0F20802904748F62823C2F20703186859
:101D3000C16AE16248F65812C2F20702136899427A
:101D400004D948F65810C2F20700016001EB810186
:101D500048F65C121346C2F2070303EB81002946E2
:101D600040F27162C0F20802904738BD48F628235D
:101D7000C2F207031868C16AE16238BD38B504468B
:101D800050B3C26AC36C9A4226D000F104052846BB
:101D900040F2D561C0F208018847E06CE062C0F112
:101DA0000A02228348F65813C2F2070319688842D0
:101DB00004D948F65812C2F20702106000EB800303
:101DC00048F65C10C2F2070000EB8300294640F29F
:101DD0007162C0F20802904738BD00BF70B540F292
:101DE0007973C0F20803984748F6A020C2F20700B2
:101DF000016849BB48F67425C2F20705284640F23F
:101E00005166C0F20806B04748F68824C2F20704BB
:101E10002046B04748F67022C2F20702156048F625
:101E2000A423C2F207031C604FF005004FF00C0121
:101E30004FF0000240F61143C0F20803984748F6FD
:101E4000A021C2F20701086040F2A170C0F20800B0
:101E5000804770BD10B5044681802061914213D83F
:101E6000D01A218B83B2994221D948F6A422C2F21A
:101E70000702106804F1040140F29163C0F2080304
:101E800098474FF0000010BD9A4201D2994211D2FA
:101E900048F67023C2F20703186804F1040140F207
:101EA0009162C0F2080290474FF0000010BD4FF061
:101EB000010010BD4FF0010010BD00BF10B584B08F
:101EC00041F6DD53C0F20803984748F6A020C2F25D
:101ED00007000168B9B14FF0090200924FF000030A
:101EE00001930293039342F26500C0F2080049F6A1
:101EF000B831C0F208014FF4007241F25514C0F23B
:101F00000804A04730B940F26574C0F20804A04745
:101F100000BFFDE704B010BD10B584B048F6A024A2
:101F2000C2F2070424683CB30191ADF80820039085
:101F3000BBB941F6AD43C0F208039847012848F603
:101F4000A023C2F20703186801A907BFBDF8182033
:101F500000230022134640F67D44C0F20804A04747
:101F60000CE0204601A91A464FF0000340F6FD544C
:101F7000C0F20804A04701E04FF0000004B010BD1B
:101F80002DE9F04F85B0824641F2AD43C0F208031F
:101F90009847814648F69C20C2F2070001884945CF
:101FA00051D92DE0DC682688B6B2DD68EC6804F112
:101FB00004052846C047616A20468847E069012831
:101FC0002DD1238BF21891B2B14209D9A18024619D
:101FD0003868294640F29163C0F2080398471EE032
:101FE000CDF800B02046594632465B46039CA047D8
:101FF000A8B940F26577C0F20807B84700BFFDE70F
:1020000048F67027C2F2070740F2D568C0F2080808
:102010004FF0000B41F61973C0F2080303933B68BD
:1020200018680028BED148F6A422C2F2070211683F
:1020300048F67020C2F20700016013604FF0010300
:10204000CAF8003003E04FF00002CAF8002048F65A
:102050009C22C2F20702A2F80090484605B0BDE8F3
:10206000F08F00BF2DE9F04F89B048F6702BC2F217
:10207000070B41F29943C0F20803039341F6817ABA
:10208000C0F2080ADBF800000268002A00F0CD80E8
:10209000C7683B889DB20398804704A8D04706468E
:1020A000049A002A52D1854238D841F27160C0F2B8
:1020B00008008047DBF80020D168CC6804F10400F8
:1020C00040F2D567C0F20807B847E369012B1FD17A
:1020D000208B2A18204691B232462B4641F655668F
:1020E000C0F20806B047012812D14FF00003009358
:1020F000204619462A4641F61975C0F20805A84738
:1021000030B940F26577C0F20807B84700BFFDE775
:10211000616A204688471EE04FF00005AE1B48F676
:10212000A024C2F207042068B1B241F27D05C0F2DA
:102130000805A84741F27167C0F20807B84750B9CF
:1021400040F25573C0F20803984704E041F2716110
:10215000C0F20801884704A8D047074648F6A026E1
:10216000C2F2070640F6AD65C0F2080540F2D56838
:10217000C0F2080841F65569C0F208094CE0079C16
:1021800024B1636913B104F10400C0470598022823
:102190002AD003283AD000283ED1BDF81830228B2F
:1021A0009918204689B23A46C847012834D1636A53
:1021B00020469847E06901282ED1228BBDF81810DF
:1021C00052184FF0000300932046194692B241F690
:1021D0001974C0F20804A047F0B940F26575C0F266
:1021E0000805A84700BFFDE7BDF81800208330B9F7
:1021F00040F26576C0F20806B04700BFFDE7391827
:10220000204689B23A463B46C84705E0204640F69C
:10221000F113C0F208039847306805A94FF0000297
:102220001346A8470028AAD12CE70399884704A899
:10223000D0470646049C002C3FF46EAF86E700BFF3
:102240002DE9F04184B007460D4649F6C033C0F28F
:1022500008036C46186859689A68DB680FC404EB79
:10226000171010F8101C4FEAC1564FEA01135FFA1D
:1022700083F83DB14FF49052C4F20E024FF4800047
:10228000106306E04FF49055C4F20E054FF480043D
:102290006C6306F0F0614FF49054C4F20E042163B5
:1022A0006FEA060606F0F06363634FF400162663D8
:1022B0004FF0010040F23535C0F20805A8476663CB
:1022C0004FF06400A84707F00F0704AAD01910F8D0
:1022D000101C4FEAC15308EB0107FFB203F0F06294
:1022E00022636FEA030000F0F061616326634FF040
:1022F0000100A84766634FF06400A847384604B061
:10230000BDE8F08108B54FEA801060F07F020A4313
:10231000D0B24FF0000142F24123C0F208039847C7
:102320004FF0280040F23531C0F2080188474FF0E5
:10233000010008BD08B540F00C004FF0000142F26A
:102340004123C0F2080398474FF0010008BD00BFC9
:1023500008B54FF001004FF0000142F24123C0F2F6
:10236000080398474FF4C86040F23531C0F20801C5
:1023700088474FF0010008BD2DE9F0474FF4905415
:10238000C4F20E044FF480072761C4F8A0704FF424
:1023900000152561C4F8A0504FF000532361C4F824
:1023A000A03023634FF0F0602061C4F8A0006563A3
:1023B00047F2305040F23536C0F20806B047676346
:1023C0004FF0806AC4F830A04FF00079C4F8309024
:1023D0004FF08078C4F834804FF4000767632563BA
:1023E0004FF00100B047656341F20400B047C4F804
:1023F00030A0C4F83090C4F83480676325634FF090
:102400000100B04765634FF06400B047C4F830A0E6
:10241000C4F83090C4F83480676325634FF001003E
:10242000B04765634FF06400B047C4F834A0C4F807
:102430003090C4F83480676325634FF00100B047E3
:1024400065634FF06400B0474FF028004FF0000183
:1024500042F24124C0F20804A0474FF008004FF0B8
:102460000001A04742F25131C0F20801884740F60E
:10247000B830B0474FF006004FF00001A0474FF0D2
:10248000000042F23532C0F2080290474FF00100DE
:10249000BDE8F08770B50446007858B14FF00106EA
:1024A00042F24125C0F208053146A84714F8010F51
:1024B0000028F9D14FF0010070BD00BF00B587B012
:1024C000024601A849F6D031C0F2080144F60D03D6
:1024D000C0F20803984701A842F29541C0F20801F2
:1024E000884707B000BD00BFF0B583B004460D4675
:1024F0004FF0000301934FF40060C4F20E008442D9
:102500000DD14FF40066C4F20E0640F2F957C0F246
:10251000080730462946B8470028FAD12BE04FF487
:102520000041C4F209018C420FD14FF40046C4F2BD
:10253000090640F23167C0F20807304601A9B847E2
:102540000028FAD1019828702BE04FF44042C4F2E1
:10255000090294420FD14FF44044C4F2090440F2FE
:102560003166C0F20806204601A9B0470028FAD11A
:10257000019B2B702AE04FF00001C4F20A018C424B
:102580000FD14FF00004C4F20A0440F23166C0F2E9
:102590000806204601A9B0470028FAD10198287002
:1025A00014E04FF48042C4F20A0294420ED14FF478
:1025B0008044C4F20A0440F23166C0F208062046A4
:1025C00001A9B0470028FAD1019B2B7003B0F0BDE0
:1025D00070B50C464FF40063C4F20E0398420FD15D
:1025E0004FF40065C4F20E0540F2E156C0F2080651
:1025F00028462146B0470028FAD14FF0010070BDAF
:102600004FF40041C4F2090188420FD14FF4004554
:10261000C4F2090540F21166C0F2080628462146B8
:10262000B0470028FAD14FF0010070BD4FF440428E
:10263000C4F2090290420FD14FF44045C4F209059B
:1026400040F21166C0F2080628462146B04700282D
:10265000FAD14FF0010070BD4FF00003C4F20A033D
:1026600098420FD14FF00005C4F20A0540F21166FE
:10267000C0F2080628462146B0470028FAD14FF09C
:10268000010070BD4FF48041C4F20A0188420FD1AD
:102690004FF48045C4F20A0540F21166C0F2080604
:1026A00028462146B0470028FAD14FF0010070BDFE
:1026B0004FF0000070BD00BF38B54FF000004FF084
:1026C000010142F20535C0F20805A84749F6D430A9
:1026D000C0F2080042F29544C0F20804A0474FF04F
:1026E00000004FF00501A84749F6D830C0F20800B5
:1026F000A0474FF000004FF00A01A84749F6DC3030
:10270000C0F20800A0474FF000004FF00E01A847AC
:1027100049F6E030C0F20800A04738BD30B585B0BA
:102720004FF0080042F63975C0F20805A8474FF48B
:102730000064C4F20E0448F6A033C2F207031C6022
:1027400048F69C30C2F2070042F2D152C0F20802B1
:10275000026048F69831C2F2070142F2E943C0F242
:1027600008030B604FF43D40C0F2015000904FF45D
:10277000E13201924FF4006102914FF00800A84746
:102780002046694640F29D55C0F20805A84740F230
:102790001805C2F207052C68A0684FF0000144F24A
:1027A000CF64C0F20804A0472B6858684FF00001BE
:1027B000A047286880684FF00001A04705B030BDF1
:1027C0002DE9F04F85B042F66D13C0F2080398472B
:1027D00042F6E510C0F2080080474FF0000040F2DA
:1027E000D121C0F2080188474FF00B0042F639743E
:1027F000C0F20804A0474FF00C00A0474FF00D00B6
:10280000A0474FF00E00A04743F2D932C0F20802B1
:1028100090474FF02600A0474FF40046C4F20C0644
:10282000304640F2A515C0F20805A84730464FF0E3
:10283000000140F2AD17C0F20807B84730464FF02C
:1028400001010A464FF0000340F2E914C0F2080407
:10285000A04730464FF0000140F2CD13C0F208030C
:10286000984730464FF0000140F21D22C0F20802A6
:10287000904742F27930C0F20800804742F2B961D5
:10288000C0F20801884748F6A435C2F2070540F6B1
:10289000010B42F21D7AC0F2080A40F61149C0F25B
:1028A000080948F6A828C2F2070843F25547C0F2C3
:1028B0000807A5F800B04FF005066E804FF06404DD
:1028C000AC804FF00106EE80D04730464FF000015B
:1028D0004FF00302C847C8F8000040B14FF00001B4
:1028E0000A460B4640F67D44C0F20804A0474FF06C
:1028F000030300934FF000040194029403943846BC
:1029000049F6E431C0F208014FF48062234641F2F7
:102910005516C0F20806B0474FF00202009201942B
:102920000294039443F63D50C0F2080049F6EC319E
:10293000C0F208014FF480622346B0474FF0010017
:10294000009001940294039440F23920C0F20800F0
:1029500049F6F431C0F208014FF480622346B047D3
:1029600041F21141C0F208018847A2E710B54FF4C7
:102970003D40C0F2015043F2C123C0F20803984722
:102980004FF000004FF03E0142F69962C0F208029B
:10299000904742F60974C0F20804A0470028FCD012
:1029A00042F61970C0F2080080474FF4C061C4F2CB
:1029B0000E0143F60173C2F20D038B6242F62974D5
:1029C000C0F20804A0470028FCD04FF0100042F6E7
:1029D000F952C0F20802904743F2F900C0F2080031
:1029E000804710BD10B541F65023C4F20E034FF4DA
:1029F00000425A604FF00B0042F63974C0F20804EE
:102A0000A0474FF00C00A0474FF00D00A0474FF03B
:102A10000E00A0474FF03B004FF0605142F66D347E
:102A2000C0F20804A0474FF055004FF06051A04796
:102A30004FF056004FF06051A0474FF068004FF044
:102A40007901C2F60001A0474FF05C004FF0010190
:102A5000C2F60001A0474FF46060C4F20E004FF4CC
:102A600040714FF0006242F66D43C0F20803984790
:102A70004FF02B004FF00061A0474FF02A004FF0BD
:102A80000061A04710BD00BF0AB1416670470166F2
:102A9000704700BF4264B1F1805F16D004D8C9B15D
:102AA000B1F1006F15D109E0B1F1405F12D0B1F181
:102AB000605F0FD0B1F1205F0BD17047036F016FE2
:102AC0000B4023EA0203036703E0036F42EA0301BA
:102AD00001674260704700BF41647047F8B5044623
:102AE0000D4616461F4642F6D923C0F20803984702
:102AF00020462946069A42F68923C0F208039847E1
:102B00000FB1256500E065650EB1256300E06563E2
:102B100025612560F8BD00BF70B504460D46164618
:102B200042F6D923C0F2080398472046294606F00A
:102B3000010242F68923C0F20803984716F00A0FF3
:102B400014BF2562656216F0020F02D0C4F88050EF
:102B500004E016F0080F18BFC4F8805065612560C6
:102B600070BD00BFC06C7047806C7047F0B583B01B
:102B70000D464FEA501606F5001101F207724FEAB2
:102B8000422605F0F044B4F1205F42D006D8B4F1FB
:102B9000006F0AD0B4F1805F64D120E0B4F1405FEF
:102BA00046D0B4F1605F5DD142E000F01F074FF006
:102BB000010404FA07F730464FF000613A4642F646
:102BC0009523C0F2080398473046394605EA0402C7
:102BD00042F68923C0F208039847204644E000F0FB
:102BE0001F004FF0010404FA00F730464FF0805107
:102BF0003A4642F69523C0F20803984730463946D4
:102C000005EA040242F68923C0F2080398472046E9
:102C10002AE000F01F024FF00104304604FA02F1EE
:102C20002A4642F61933C0F20803984720461BE0B3
:102C300000F01F024FF0010405F0605305EA0401A3
:102C40000091304604FA02F1B3F1605F14BF002234
:102C50000122C5F3800342F6DD25C0F20805A8472E
:102C6000204601E04FF0000003B0F0BDF0B583B0A6
:102C700007460E46154602F0F044B4F1205F36D008
:102C800006D8B4F1006F0AD0B4F1805F4DD11AE0DC
:102C9000B4F1405F33D0B4F1605F46D12FE04FF024
:102CA0000061324642F69523C0F208039847384641
:102CB000314605F0010242F68923C0F20803984725
:102CC0004FF0010033E04FF08051324642F6952339
:102CD000C0F2080398473846314605F0010242F633
:102CE0008923C0F2080398474FF001001FE042F625
:102CF0001933C0F2080398474FF0010017E005F0C0
:102D0000605205F00100009038463146B2F1605F34
:102D100014BF00220122C5F3800342F6DD24C0F275
:102D20000804A0474FF0010001E04FF0000003B09D
:102D3000F0BD00BFF8B504460E4642F66533C0F25A
:102D4000080398470546204642F66931C0F208015B
:102D50008847054014D00B4C274654F80C0CB04261
:102D60000AD154F8081C294206D022683046904700
:102D700054F8083C25EA030504F11004002DEBD1BA
:102D8000F8BD00BFB88A072008B54FF46060C4F2F0
:102D90000E004FF00B0142F63553C0F2080398477E
:102DA00008BD00BF08B54FF48050C4F20E004FF0CC
:102DB0000C0142F63553C0F20803984708BD00BF26
:102DC00008B54FF49050C4F20E004FF00D0142F6DA
:102DD0003553C0F20803984708BD00BF08B54FF44B
:102DE000A050C4F20E004FF00E0142F63553C0F26F
:102DF0000803984708BD00BF4FF4C063C4F20E0338
:102E00001A6B22F0700108431863986E10F0080FD7
:102E100007D010E000F1FF33906E10F0080F38D0AB
:102E200009E04FF400604FF4C062C4F20E02916EEC
:102E300011F0080FEED04FF4C061C4F20E010A6B1E
:102E400022F0030343F002000863896E11F0080FBB
:102E500009D04FF00000704703F1FF33916E11F07D
:102E6000080F13D009E04FF400634FF4C062C4F2BE
:102E70000E02906E10F0080FEED04FF00000704779
:102E80004FF0010070474FF001007047013BF0D157
:102E9000F9E7581ECBD1F3E788B14FF4C061C4F213
:102EA0000E01086A4FF6FC72CFF6C86202404FF07E
:102EB0000203C0F2371342EA0300086270474FF47E
:102EC000C063C4F20E031A6A22F45C1020F00302FD
:102ED00042F45C1040F001024FEA016142EA114005
:102EE00018624FF4C062C4F20E02936E13F0010F29
:102EF000FBD04FF4C061C4F20E01086A40F09B722F
:102F000042F480330B6270474FF4C063C4F20E0387
:102F1000986E00F4803070474FF4C063C4F20E0323
:102F20004FF000529A6270474FF4C063C4F20E0330
:102F3000986E00F0020070472C2835D81F2817D84B
:102F40004FF4C061C4F20E018A694FF0010303FA25
:102F500000F31A4093422AD04FF0010101FA00F029
:102F60004FF4C062C4F20E0210614FF000007047CF
:102F70004FF4C063C4F20E03D3F80821A0F120007F
:102F80004FF0010101FA00F10A40914212D04FF0D6
:102F9000010303FA00F04FF4C062C4F20E02C2F85B
:102FA00000014FF0000070474FF0010070474FF0F4
:102FB000000070474FF00000704700BFFEE700BF01
:102FC00038B540F20003C2F2070349F60C62C0F2C2
:102FD00008029A4203D040484049814204D3404B02
:102FE000404A9A4225D342E03F4D404C631B23F0B8
:102FF00003054FF0000340F20002C2F2070249F657
:103000000C61C0F2080105F10400C5F380045D58AD
:103010009D5003F10403834255D1E0E75D589D5074
:1030200003F104035C589C5003F104038342F5D17F
:10303000D5E72F4D2F49481B20F0030440F6D80355
:10304000C2F20703E2184FF00001501BA0F1040088
:10305000C0F3800445F8041F95422DD107E005F127
:103060000403696005F1080559609542F7D140F203
:103070000005C0F2080525F0604222F07F014FF400
:103080006D40CEF20000816005F16044B4F5801F10
:1030900007D24FF46D43CEF200039D6845F0005215
:1030A0009A6044F22161C0F20801884742F2C1707F
:1030B000C0F208008047FEE7002CD0D045F8041F7E
:1030C0009542CCD1D3E7002CA8D05C589C5003F19A
:1030D00004038342A2D182E7D8080720000007201A
:1030E000C08B0720D808072004000720DB08072032
:1030F000D4080720BB8B07204FF4C063C4F20E0333
:10310000186B00F00301032900F2B180DFE801F041
:1031100002144F4F41F61020C4F20E00416911F025
:10312000800F40F20C03C2F2070314BF4FF40042B9
:103130004FF4FA421A609AE04FF4C063C4F20E03EF
:10314000186A10F0807F09D04FF4D853C0F2B7034B
:1031500040F20C02C2F20702136088E04FF41061E3
:10316000C0F23D0140F20C02C2F2070211604FF4BE
:10317000C063C4F20E03186A00F07001102902D077
:10318000202974D109E04FF49050C0F27A0040F247
:103190000C01C2F20701086069E04FF4D853C0F295
:1031A000B70340F20C02C2F2070213605FE04FF473
:1031B000C062C4F20E02136A13F0807F09D04FF48C
:1031C000D851C0F2B70140F20C02C2F207021160FE
:1031D00027E04FF41060C0F23D0040F20C01C2F253
:1031E000070108604FF4C062C4F20E02136A03F0D4
:1031F0007000102802D0202813D109E04FF490531A
:10320000C0F27A0340F20C00C2F20700036008E04B
:103210004FF4D851C0F2B70140F20C02C2F20702DB
:1032200011604FF4C063C4F20E03186B00F0030189
:10323000022913D14FF4C061C4F20E01886A896A71
:1032400040F20C03C2F20703C0F30A401A6800FB05
:103250000220C9B2B0FBF1F21A6008E04FF4E0536B
:10326000C0F64E6340F20C02C2F2070213604FF444
:10327000C062C4F20E02106B00F0700170290ED112
:1032800040F20C03C2F2070318684AF6AB22CAF6F2
:10329000AA22A2FB00014FEA5100186070474FF4C8
:1032A000C063C4F20E031A6B40F20C00C2F20700B6
:1032B000C2F30211036823FA01F30360704700BFF1
:1032C0004EF6BF23C0F2211398420CD84FF420636E
:1032D000C4F20E034FF0000018604FF44061C4F2D6
:1032E0000E01086070474FF27F01C0F2FA21884258
:1032F0000CD84FF42060C4F20E004FF480710160CE
:103300004FF44062C4F20E021160704748F6FF733A
:10331000C0F2D03398420CD84FF42061C4F20E01B1
:103320004FF400720A604FF44063C4F20E031A6057
:1033300070474BF2FF31C0F2C44188420CD84FF4C1
:103340002063C4F20E034FF440721A604FF44060E1
:10335000C4F20E000260704744F67F23C0F25D5352
:1033600098424FF42060C4F20E0094BF4FF4806284
:103370004FF4A06202604FF44061C4F20E010A6093
:10338000704700BF48F61C33C2F20703196841B901
:1033900048F61C33C2F207034AF6C032C2F20702F3
:1033A0001A6048F61C31C2F207010B681818086051
:1033B000184670474FF0FF30704700BF4FF400537E
:1033C0004B604FF0000070474FF00100704700BFA6
:1033D0004FF00000704700BF38B54FF0250042F6AF
:1033E0003973C0F2080398474FF00004C4F20C048C
:1033F00020464FF4F441C0F6032149F68072C0F232
:10340000D5024FF0080340F2B945C0F20805A847BD
:1034100020464FF000014FF440124FF0010340F2FC
:103420001955C0F20805A84720464FF0000140F2A8
:10343000F942C0F2080290474FF4486020612046EC
:103440004FF000010A4640F20953C0F208039847C2
:1034500038BD00BF2DE9F04F87B040F21003C2F233
:103460000703B3F9000044F21901C0F208018847CC
:103470004FF000024FF48043C4F28F0344F239341A
:10348000C0F20804A047CDE9040148F6A82083460D
:10349000C2F2070B41F2F72AC4F6DA3A41F2AD4222
:1034A000C0F20802904748F65835C2F20705288056
:1034B00048F65036C2F2070637885FB148F65633F1
:1034C000C2F20703198829B148F65234C2F2070440
:1034D000208888B9DBF800004FF000010A460B464F
:1034E00040F67D45C0F20805A8474FF0320041F68E
:1034F0005D02C0F20802904748F65E36C2F2070647
:10350000378848F65033C2F207031F8048F65A3115
:10351000C2F207010C8848F65630C2F20700048058
:1035200048F66235C2F207052E8848F65232C2F2DA
:103530000702168048F62C36C2F2070648F65C33BE
:10354000C2F207031988318048F62434C2F2070416
:1035500027804FF00004C4F20C04204640F2395793
:10356000C0F20807B847204640F25555C0F208059A
:10357000A84720464FF00A0140F24157C0F2080721
:10358000B84748F6AE35C2F20705288020464FF00E
:103590000B01B8472A8802EB42138AFB0321C1F3CF
:1035A000CF042C8080B200EB40178AFB07154FEA4E
:1035B000E50082B248F6B033C2F207031A8048F63B
:1035C0002E31C2F207010C8048F64834C2F20704DB
:1035D000228036883EB948F6B433C2F207034FF072
:1035E000000119600BE087B2F51B48F6B430C2F257
:1035F0000700056048F62832C2F20702156048F657
:10360000B434C2F20704276848F64C36C2F2070603
:10361000356807EB0508C6F8008044F21906C0F2C9
:1036200008063846B047CDE9000148F64032C2F2FC
:103630000702C2E9000148F65630C2F207000088CE
:1036400043F6F973C0F20803984702460B4644F26A
:103650003939C0F20809DDE90401C84704460D46BE
:103660004046B04702460B4644F2E508C0F208085F
:1036700020462946C047CDE9020148F63032C2F261
:103680000702C2E9000148F65231C2F20701088878
:10369000B04704460D4648F62030C2F207000368E2
:1036A000F81AB047DDE90423C84702460B46204616
:1036B0002946C04704460D4648F63837C2F2070788
:1036C000C7E9004548F62432C2F207021088B04725
:1036D00006460F4643F68159C0F20809DDE90001AC
:1036E000DDE90223C84702460B4620462946C84763
:1036F00002460B4630463946C04744F20954C0F2F0
:103700000804A04701B2B1F5805F07DB48F6B83086
:10371000C2F2070040F6FF73036008E0002948F694
:10372000B835C2F20705AEBF296000222A6048F60C
:10373000B832C2F20702166848F65437C2F20707D9
:103740003E8048F6AE34C2F20704218840F6B83510
:10375000A94206D948F6B830C2F207004FF000037C
:1037600003604FF40040C4F20C0048F6B832C2F2D5
:103770000702116840F2C916C0F20806B04748F6C1
:10378000B437C2F207073C6848F62031C2F207019D
:103790000C60DBF800004FF000010A460B4640F6D3
:1037A0007D45C0F20805A847054840F21003C2F263
:1037B0000703198841F6B902C0F2080290476DE686
:1037C000588B072038B5002800F0348200F1FF3014
:1037D000042800F22F82DFE810F09700E6003301A2
:1037E0000500AA0140F21400C2F207000168B1F11D
:1037F000FF3F18D14FF00000014642F20533C0F2FE
:103800000803984749F6FC30C0F2080042F295419F
:10381000C0F20801884740F21400C2F207004FF0DE
:103820000002026038BD11BB4FF00000014642F2B9
:103830000535C0F20805A84749F60040C0F2080067
:1038400042F29544C0F20804A0474FF000004FF048
:103850000401A84749F6FC30C0F20800A04740F236
:103860001403C2F207034FF001021A6038BD0129A8
:1038700023D14FF000004FF0040142F20535C0F2B1
:103880000805A84749F60040C0F2080042F29544F6
:10389000C0F20804A0474FF000004FF00901A8470C
:1038A00049F6FC30C0F20800A04740F21400C2F212
:1038B00007004FF00201016038BD022940F0BA81D3
:1038C0004FF000004FF0090142F20535C0F2080543
:1038D000A84749F60040C0F2080042F29544C0F201
:1038E0000804A0474FF000004FF00D01A84749F62B
:1038F000FC30C0F20800A04740F21403C2F20703F4
:103900004FF003021A6038BD40F21403C2F20703FD
:10391000186878B948F6A432C2F207021188B1F5E6
:10392000805F2DD201F1050148F6A430C2F20700F4
:10393000018038BD01280FD148F6A432C2F2070237
:103940005188082900F2768101F1010148F6A4337B
:10395000C2F20703598038BD022811D148F6A432BB
:10396000C2F20702918840F2E633994200F2628186
:1039700001F1050148F6A430C2F20700818038BD8C
:10398000032840F0578148F6A430C2F20700C388EC
:10399000092B00F24F8103F1010348F6A432C2F271
:1039A0000702D38038BD40F21403C2F2070319683E
:1039B00079B948F6A430C2F207000288B2F5806FE8
:1039C0002BD9A2F1050248F6A431C2F207010A8000
:1039D00038BD01290FD148F6A431C2F20701488849
:1039E000012840F2278100F1FF3348F6A432C2F2E9
:1039F0000702538038BD02290FD148F6A430C2F225
:103A000007008388642B40F21581A3F1050348F673
:103A1000A432C2F20702938038BD032940F00A8124
:103A200048F6A431C2F20701CB88012B40F2028193
:103A300003F1FF3048F6A432C2F20702D08038BD4D
:103A400040F21403C2F207031968032923D14FF08F
:103A500000004FF00D0142F20535C0F20805A847FD
:103A600049F60040C0F2080042F29544C0F2080452
:103A7000A0474FF000004FF00901A84749F6FC307D
:103A8000C0F20800A04740F21400C2F207004FF055
:103A90000202026038BD022923D14FF000004FF02E
:103AA000090142F20535C0F20805A84749F6004071
:103AB000C0F2080042F29544C0F20804A0474FF05B
:103AC00000004FF00401A84749F6FC30C0F208009E
:103AD000A04740F21403C2F207034FF0010119603E
:103AE00038BD012940F0A6804FF000004FF00401DE
:103AF00042F20535C0F20805A84749F60040C0F279
:103B0000080042F29544C0F20804A0474FF00000BC
:103B10000146A84749F6FC30C0F20800A04740F231
:103B20001400C2F207004FF00002026038BD48F6F0
:103B3000A821C2F2070108684FF000014FF6FF729A
:103B40000B4640F6AD64C0F20804A047002871D0CF
:103B500048F6A433C2F20703188848F65C32C2F272
:103B600007021080598848F65E30C2F207000180D3
:103B7000998848F65A32C2F207021180D88848F66E
:103B80006233C2F20703188040F21401C2F2070147
:103B90000A688AB94FF00000014642F20533C0F2CC
:103BA0000803984749F60440C0F2080042F29542E3
:103BB000C0F20802904738BD012A12D14FF0000030
:103BC0004FF0040142F20532C0F20802904749F674
:103BD0000440C0F2080042F29541C0F20801884753
:103BE00038BD022A12D14FF000004FF0090142F215
:103BF0000532C0F20802904749F60440C0F20800BE
:103C000042F29543C0F20803984738BD032A11D108
:103C10004FF000004FF00D0142F20533C0F20803EF
:103C2000984749F60440C0F2080042F29541C0F2BC
:103C30000801884738BD00BF82B04FF000030193F0
:103C40000199884213D94FF000020092009B012B8A
:103C500006D8009901F101010091009B012BF8D9D0
:103C6000019901F101010191019B8342EDD302B061
:103C7000704700BF70B54FF00000C4F20C004FF069
:103C8000070140F24153C0F208039847B0F5C87FDE
:103C900010D3B0F57A7F10D340F2DB5188420FD9B0
:103CA000B0F5FA6F0FD340F6C314A04294BF0525B8
:103CB00000250AE04FF0040507E04FF0010504E09D
:103CC0004FF0020501E04FF0030544F6F010C0F29A
:103CD000020043F63942C0F208029047284643F2F8
:103CE000C576C0F20806B0474FF001004FF0000162
:103CF00042F20536C0F20806B04748F6A435C2F2D3
:103D00000705288842F2BD44C0F20804A0474FF0DE
:103D100001004FF00501B0476888A0474FF001004F
:103D20004FF00901B047A888A0474FF001004FF0BD
:103D30000E01B047E888A04770BD00BFF8B541F25A
:103D4000AD43C0F20803984748F66031C2F207015C
:103D5000088043F67547C0F208070E464FF0FA0593
:103D600041F6B904C0F20804B84730462946A047D6
:103D7000FAE700BF81F0004102E000BF83F000439A
:103D800030B54FEA41044FEA430594EA050F08BFF6
:103D900090EA020F1FBF54EA000C55EA020C7FEABA
:103DA000645C7FEA655C00F0E2804FEA5454D4EB37
:103DB0005555B8BF6D420CDD2C4480EA020281EA01
:103DC000030382EA000083EA010180EA020281EA39
:103DD0000303362D88BF30BD11F0004F4FEA01318B
:103DE0004FF4801C4CEA113102D0404261EB41019A
:103DF00013F0004F4FEA03334CEA133302D0524220
:103E000063EB430394EA050F00F0A780A4F10104DB
:103E1000D5F1200E0DDB02FA0EFC22FA05F2801815
:103E200041F1000103FA0EF2801843FA05F35941FB
:103E30000EE0A5F120050EF1200E012A03FA0EFC7A
:103E400028BF4CF0020C43FA05F3C01851EBE371A4
:103E500001F0004507D54FF0000EDCF1000C7EEBC1
:103E600000006EEB0101B1F5801F1BD3B1F5001FFF
:103E70000CD349085FEA30004FEA3C0C04F101041E
:103E80004FEA445212F5800F80F09A80BCF1004F47
:103E900008BF5FEA500C50F1000041EB045141EAC9
:103EA000050130BD5FEA4C0C404141EB010111F4CA
:103EB000801FA4F10104E9D191F0000F04BF014675
:103EC0000020B1FA81F308BF2033A3F10B03B3F153
:103ED00020020CDA0C3208DD02F1140CC2F10C02E3
:103EE00001FA0CF021FA02F10CE002F11402D8BF41
:103EF000C2F1200C01FA02F120FA0CFCDCBF41EA0D
:103F00000C019040E41AA2BF01EB0451294330BDDB
:103F10006FEA04041F3C1CDA0C340EDC04F11404B8
:103F2000C4F1200220FA04F001FA02F340EA03008F
:103F300021FA04F345EA030130BDC4F10C04C4F1D5
:103F4000200220FA02F001FA04F340EA03002946B5
:103F500030BD21FA04F0294630BD94F0000F83F4FF
:103F6000801306BF81F480110134013D4EE77FEAE2
:103F7000645C18BF7FEA655C29D094EA050F08BF2E
:103F800090EA020F05D054EA000C04BF194610460F
:103F900030BD91EA030F1EBF0021002030BD5FEA53
:103FA000545C05D14000494128BF41F0004130BD7B
:103FB00014F580043CBF01F5801130BD01F00045CF
:103FC00045F0FE4141F470014FF0000030BD7FEA42
:103FD000645C1ABF194610467FEA655C1CBF0B463D
:103FE000024650EA013406BF52EA033591EA030F54
:103FF00041F4002130BD00BF90F0000F04BF00214C
:10400000704730B54FF4806404F132044FF000057E
:104010004FF0000150E700BF90F0000F04BF0021F7
:10402000704730B54FF4806404F1320410F000455D
:1040300048BF40424FF000013EE700BF42004FEA58
:10404000E2014FEA31014FEA02701FBF12F07F43D5
:1040500093F07F4F81F06051704792F0000F14BFD2
:1040600093F07F4F704730B54FF4607401F0004516
:1040700021F0004120E700BF50EA010208BF70476D
:1040800030B54FF000050AE050EA010208BF704762
:1040900030B511F0004502D5404261EB41014FF4CB
:1040A000806404F132045FEA915C3FF4DCAE4FF0CF
:1040B00003025FEADC0C18BF03325FEADC0C18BFB6
:1040C000033202EBDC02C2F1200300FA03FC20FA07
:1040D00002F001FA03FE40EA0E0021FA02F1144454
:1040E000C1E600BF70B54FF0FF0C4CF4E06C1CEA69
:1040F00011541DBF1CEA135594EA0C0F95EA0C0FDE
:1041000000F0DEF82C4481EA030621EA4C5123EA50
:104110004C5350EA013518BF52EA033541F480117F
:1041200043F4801338D0A0FB02CE4FF00005E1FB32
:1041300002E506F00042E0FB03E54FF00006E1FB7C
:1041400003569CF0000F18BF4EF0010EA4F1FF04BF
:10415000B6F5007F64F5407404D25FEA4E0E6D41FF
:1041600046EB060642EAC62141EA55514FEAC52010
:1041700040EA5E504FEACE2EB4F1FD0C88BFBCF58C
:10418000E06F1ED8BEF1004F08BF5FEA500E50F13D
:10419000000041EB045170BD06F0004646EA010103
:1041A00040EA020081EA0301B4EB5C04C2BFD4EB35
:1041B0000C0541EA045170BD41F480114FF0000E2E
:1041C000013C00F3AB8014F1360FDEBF002001F09C
:1041D000004170BDC4F10004203C35DA0C341BDC16
:1041E00004F11404C4F1200500FA05F320FA04F0E8
:1041F00001FA05F240EA020001F0004221F000411C
:1042000010EBD37021FA04F642EB06015EEA430E8E
:1042100008BF20EAD37070BDC4F10C04C4F12005BE
:1042200000FA04F320FA05F001FA04F240EA020071
:1042300001F0004110EBD37041F100015EEA430E42
:1042400008BF20EAD37070BDC4F1200500FA05F262
:104250004EEA020E20FA04F301FA05F243EA0203E1
:1042600021FA04F001F0004121FA04F220EA0200F0
:1042700000EBD3705EEA430E08BF20EAD37070BD36
:1042800094F0000F0FD101F00046400041EB010116
:1042900011F4801F08BF013CF7D041EA060195F0F8
:1042A000000F18BF704703F00046520043EB0303B2
:1042B00013F4801F08BF013DF7D043EA060370479F
:1042C00094EA0C0F0CEA135518BF95EA0C0F0CD0AA
:1042D00050EA410618BF52EA4306D1D181EA0301F0
:1042E00001F000414FF0000070BD50EA410606BFEA
:1042F0001046194652EA430619D094EA0C0F02D12F
:1043000050EA013613D195EA0C0F05D152EA033673
:104310001CBF104619460AD181EA030101F0004191
:1043200041F0FE4141F470014FF0000070BD41F0DA
:10433000FE4141F4780170BD70B54FF0FF0C4CF4B4
:10434000E06C1CEA11541DBF1CEA135594EA0C0FD3
:1043500095EA0C0F00F0A7F8A4EB050481EA030E20
:1043600052EA03354FEA013100F088804FEA033307
:104370004FF0805545EA131343EA12634FEA0222D5
:1043800045EA111545EA10654FEA00260EF0004196
:104390009D4208BF964244F1FD0404F5407402D2E8
:1043A0005B084FEA3202B61A65EB03055B084FEA79
:1043B00032024FF480104FF4002CB6EB020E75EB76
:1043C000030E22BFB61A754640EA0C005B084FEA9E
:1043D0003202B6EB020E75EB030E22BFB61A75461B
:1043E00040EA5C005B084FEA3202B6EB020E75EB66
:1043F000030E22BFB61A754640EA9C005B084FEADE
:104400003202B6EB020E75EB030E22BFB61A7546EA
:1044100040EADC0055EA060E18D04FEA051545EAD9
:1044200016754FEA06164FEAC30343EA52734FEA82
:10443000C2025FEA1C1CC0D111F4801F0BD141EAFB
:1044400000014FF000004FF0004CB6E711F4801F60
:1044500004BF01430020B4F1FD0C88BFBCF5E06F40
:104460003FF6AFAEB5EB030C04BFB6EB020C5FEA50
:10447000500C50F1000041EB045170BD0EF0004EA5
:104480004EEA113114EB5C04C2BFD4EB0C0541EAD7
:10449000045170BD41F480114FF0000E013C90E6D4
:1044A00045EA060E8DE60CEA135594EA0C0F08BF98
:1044B00095EA0C0F3FF43BAF94EA0C0F0AD150EA97
:1044C00001347FF434AF95EA0C0F7FF425AF10462A
:1044D00019462CE795EA0C0F06D152EA03353FF452
:1044E000FDAE1046194622E750EA410618BF52EACF
:1044F00043067FF4C5AE50EA41047FF40DAF52EAA3
:1045000043057FF4EBAE12E74FEA410212F50012C9
:1045100015D211D56FF47873B3EB625212D94FEA0A
:10452000C12343F0004343EA505311F0004F23FAF4
:1045300002F018BF404270474FF00000704750EA49
:10454000013005D111F0004008BF6FF00040704706
:104550004FF00000704700BF2DE9F8439846234B09
:1045600006461C680F46D4F84801914618B904F570
:10457000A670C4F8480141681F2916DD1C4818B907
:104580004FF0FF30BDE8F8834FF4C87003F048F9EE
:104590000028F5D0D4F84821002545600260C4F811
:1045A0004801C0F88851C0F88C51B6B14468012266
:1045B00002FA04F2D0F8881100EB84031143022EB2
:1045C000C3F88890C0F888111C46C3F8088104D14C
:1045D000D0F88C311A43C0F88C2141688B1C4A1CDE
:1045E00040F8237042600020BDE8F883089C080072
:1045F0002178080070B5084B084C0025E01A84109B
:1046000003EB8406043D1CB172599047013CF9E765
:10461000BDE8704005F0EEBB009E0800049E080057
:1046200038B50E4D0E4B0024E81A8510AC4205D06B
:104630000B4951F8242090470134F7E705F0D0FBEF
:104640000849094A541AA5100024AC4205D0054B6C
:1046500053F8240080470134F7E738BDEC9D08008B
:10466000EC9D0800EC9D0800F49D08000FB407B510
:10467000064904AB086853F8042B8168019301F0E4
:10468000B3F8BDE80E4004B0704700BF1800072023
:104690000EB403B503AB53F8042B8168019301F00A
:1046A000A3F8BDE80C4003B0704700BF10B500236D
:1046B000934203D0CC5CC4540133F9E710BD821897
:1046C0000346934202D003F8011BFAE77047002922
:1046D0000CBF022200224FF4806300F001B80000FA
:1046E0002DE9F0411D46374B044618680E46174623
:1046F000984618B1826B0AB902F050FC022F5DD8BF
:10470000002D5BDB2146D8F8000002F055FBA189A3
:10471000002001F080031AB26060A06122B1294834
:104720002169006802F078FDA189022F21F083033E
:10473000A38112D036BB002D08BF4FF480652846F8
:1047400003F06EF80646C8B94FF4806003F068F8CD
:10475000064688B94FF0FF3000E00020A189002212
:1047600041F00203A38104F143010123A26021600F
:1047700021616361BDE8F0814FF48065A28942F058
:104780008000A081012F05D1A1896A4241F0010377
:10479000A381A2610B48A28901680B4B02F00800BB
:1047A00000B2CB6326602661656148B112F0030F49
:1047B00018BF0025A5600020BDE8F0814FF0FF3054
:1047C000BDE8F08118000720116F08000CB410B587
:1047D0009CB01EAB029106916FF0004153F8042B80
:1047E000049107914FF6FF71ADF816104FF4027463
:1047F00002A90193ADF8144000F04AF8029B002290
:104800001A701CB0BDE8104002B070470EB400B57D
:104810009CB0029006906FF000401DAB0490079092
:104820004FF402710A4853F8042BADF814104FF6F8
:10483000FF71ADF81610006802A9019300F028F886
:10484000029B00221A701CB05DF804EB03B07047A5
:1048500018000720034613F8012B002AFBD1181A71
:104860000138704730B5013903461C463AB111F89A
:10487000015F013A03F8015B1C46002DF5D1991840
:104880008C4203D0002204F8012BF9E730BD000070
:104890002DE9F04FBFB08B461F461446089002F03A
:1048A00041FF00681490FFF7D5FFBBF80C300021E2
:1048B00011900020CDE90C0103F0800001B2A9B1F4
:1048C000DBF8102092B90898402102F0B9FFCBF82C
:1048D0000000CBF8100030B9089A0C2313604FF099
:1048E000FF3000F047BF4025CBF8145000232EAE18
:1048F0002196239322930E940A9316931593109363
:104900000E98044610F8011B19B90E9AA51A03D186
:104910001BE02529F5D1F8E70E9B229986E82800AF
:10492000239B4A1C5819072A2390229201DC08363F
:1049300008E00898594621AA03F0A0FF002840F09B
:104940000E872EAE109B581910902178002900F088
:10495000FF86002201340E948DF863204FF0FF3A59
:104960000F9291460E9B13F8018B0E93A8F1200035
:10497000582800F26183DFE810F059005F035F03FD
:104980005F005F035F035F035F035F035F0362001A
:104990006D005F036A0071005F0395009800980046
:1049A00098009800980098009800980098005F037D
:1049B0005F035F035F035F035F035F035F035F03E7
:1049C0005F03C800F1005F03F1005F035F035F0353
:1049D0005F03A8005F035F0349025F035F035F0398
:1049E0005F035F039D025F035F03BC025F035F031E
:1049F0005F035F035F035F035F035F035F035F03A7
:104A0000BB00CA00F100F100F100AB00CA005F0377
:104A10005F03AE005F032F024B027102B8005F0319
:104A200081025F039F025F035F03B9029DF8632069
:104A3000002A97D120210EE049F0010992E73A1DA2
:104A40003F68002F0F971ADA78420F90174649F007
:104A5000040987E72B218DF8631083E70E9A12F87B
:104A6000018BB8F12A0F0E920BD1D7F800A03A1D96
:104A7000BAF1000F03DA17464FF0FF3A72E7174614
:104A800070E74FF0000EA8F13001092907D80E9801
:104A90000A2310F8018B03FB0E1E0E90F3E74EEA7B
:104AA000EE7A63E749F080095CE70E9A0023A8F1EB
:104AB00030080A2101FB038312F8018BA8F13000B2
:104AC00009280E92F3D90F9350E749F0080949E7F6
:104AD00049F0400946E70E9A13786C2B02D1511C1D
:104AE0000E9102E049F010093CE749F0200939E74E
:104AF0003C684FF0000A24A88DF890408DF863A020
:104B00000437012455460990A9E249F0100919F02B
:104B1000200F07D0FC1D24F0070505F10807D5E993
:104B200000450FE019F0100F07F1040001D03F68B5
:104B300005E019F0400F3F6801D03CB200E03C4670
:104B4000E5170746002C75F1000280F2FF812D2346
:104B5000644265EB45058DF86330F7E1FC1D24F0F8
:104B60000705CDF82C90CDF84880D5E90001CDE9B6
:104B70000C010C990D9C13910846214603F0EAFDA7
:104B800005F108070C9D01280D99284614D1002233
:104B9000002304F0DDFC10B12D228DF86320AB4B17
:104BA000AB49B8F1470FD8BF1946099129F08009E0
:104BB00003244FF0000A51E203F0CCFD10B9A54BDD
:104BC000A549EEE7BAF1FF3F0BD0B8F1670F02D06D
:104BD000B8F1470F07D1BAF1000F08BF4FF0010A33
:104BE00001E04FF0060A002C49F4807904DA2D2206
:104BF00004F10044179201E000231793B8F1660F07
:104C00000BD0B8F1460F08D0B8F1650F02D0B8F15B
:104C1000450F05D10AF1010503E05546032301E0E4
:104C2000554602238DE828001AA91BA81CAB039047
:104C3000049302910898139A234601F026FBB8F1D9
:104C4000670F099002D0B8F1470F0BD10B9AD30729
:104C500008D41C990998B8F1670FC0EB01030A93B7
:104C600032D134E00999B8F1660F01EB050C02D09E
:104C7000B8F1460F13D109980378302B0DD1139852
:104C8000214600220023CDF81CC004F057FCDDF8BB
:104C90001CC010B9C5F101051A951A9A94441398CD
:104CA000214600220023CDF81CC004F047FCDDF8AB
:104CB0001CC008B1CDF870C01C9C6445C9D2302519
:104CC00004F8015B1C94F7E7B8F1470F07D11A9C71
:104CD000E01C01DB54455CDDA8F1020802E0B8F1FC
:104CE000660F40D01A9C8DF87480611E00291A91BD
:104CF00002DA49422D2000E02B2009298DF87500A9
:104D00001BDD0DF182020A2091FBF0F500FB15136B
:104D10003033092D1446294602F80139F3DC3031CD
:104D200004F8011D0DF176010DF1830294420BD2BE
:104D300014F8010B01F8010BF6E730254B198DF83B
:104D400076508DF877301EA90A9D1DAC081B012DE9
:104D5000159000EB050403DC0B9B13F0010533D029
:104D60000134002530E01A9C002C09DDBAF1000F57
:104D700002D10B9AD10724D50AF1010A544420E04C
:104D8000BAF1000F02D10B9DEA0716D50AF1020411
:104D900017E00A998C4206DB0B9DEB070FD56721C4
:104DA000013412910DE0002C0A98D4BFC4F1020422
:104DB000012467230419129303E0012401E0672210
:104DC00012921A9DDDF84880179911B12D228DF8A5
:104DD00063204FF0000A42E119F0200F07F10404AC
:104DE00005D03968109FF8170F6048600CE019F083
:104DF000100F06D119F0400F03D03F68109A3A8087
:104E000002E03B68109D1D60274679E549F01009D6
:104E100019F0200308D0F91D21F0070303F108075A
:104E2000D3E9004500238DE019F0100107F10400DB
:104E300006D119F0400303D03C8800250746F1E76E
:104E40003F6800253C4607467CE000BF2E9C0800DA
:104E5000329C0800369C08003A9C08003D68A54931
:104E600030204FF078082C4649F0020900258DF8D3
:104E700064008DF865800437169162E0002539469C
:104E80008DF863500A680437AA4509920DDB104675
:104E90002946524602F0D6FE002800F0DC80099B2D
:104EA000C41A544595DD5446D7E00998FFF7D2FC63
:104EB0000446D2E049F0100919F0200F07D0FD1D7B
:104EC00025F0070202F10807D2E900450CE019F0CD
:104ED000100F07F1040304D119F0400F01D03C88F2
:104EE00000E03C6800251F4601232BE0814C16940E
:104EF00001E0814D169519F0200F07D0FA1D22F020
:104F0000070101F10807D1E900450DE019F0100F84
:104F100007F1040304D119F0400F01D03C8801E0EF
:104F20003F683C4600251F4619F0010F09D054EA9E
:104F3000050106D030208DF864008DF8658049F0B9
:104F40000209022300228DF8632000E00123BAF158
:104F5000000FA8BF29F0800954EA050202D1BAF176
:104F6000000F54D0012B1DD0022B0DF1B7033DD003
:104F700004F00702E40844EA4570E90830320446C8
:104F80000D4609931A70013B54EA0501F0D119F05E
:104F9000010F099D4BD0302A49D03022099305F8E2
:104FA000012C44E0002D08BF0A2C03D230348DF8C8
:104FB000B74033E00DF1B7030B930B9A20460992EB
:104FC00029460A22002304F0EBFA0B99303201F84B
:104FD00001290B91204629460A22002304F0E0FA19
:104FE00004460D4654EA0502E7D120E0169804F085
:104FF0000F012409425C44EA057128090C46054664
:1050000054EA0501099303F80129EFD10FE04BB9E8
:1050100019F0010F09D030208DF8B7000DF1B70558
:10502000099504E02EA9099101E02EAA0992099898
:105030002EAC241A002512E0B8F1000F00F088838E
:105040004FF0000A24A98DF890808DF863A0012408
:105050005546099103E05446ABE5AA4655469DF8EE
:1050600063005445ACBF234653460B9310B10B9AD3
:10507000511C0B9119F00203129302D00B98821C61
:105080000B9219F08401139143D10F9B0B98C0EB45
:10509000030CBCF1000F3CDD184ABCF1100F32606C
:1050A0001BDD229A239B501C1021103307287160AE
:1050B0002393229001DC08360CE00898594621AA77
:1050C000CDF81CC003F0DAFBDDF81CC0002840F06E
:1050D00046832EAEACF1100CDEE722982399421CD9
:1050E00001EB0C03072AC6F804C02393229207DCC5
:1050F00008360EE04F9C08003E9C08000E9C0800FD
:105100000898594621AA03F0B9FB002840F02783EC
:105110002EAE9DF86310B9B10DF163033360229B8D
:105120000120239A7060581C511C0728239122905B
:1051300001DC083608E00898594621AA03F09EFBD6
:10514000002840F00C832EAE129AB2B119A931603A
:1051500022990223239873604B1C821C072B2392F5
:10516000229301DC083608E00898594621AA03F08A
:1051700085FB002840F0F3822EAE139880283DD1A5
:105180000F9A0B99C1EB020CBCF1000F36DD9D4B61
:10519000BCF1100F33601BDD229A239B501C1021A1
:1051A0001033072871602393229001DC08360CE04D
:1051B0000898594621AACDF81CC003F05FFBDDF822
:1051C0001CC0002840F0CB822EAEACF1100CDEE704
:1051D000229923984B1C00EB0C02072BC6F804C045
:1051E0002392229301DC083608E00898594621AA48
:1051F00003F044FB002840F0B2822EAEC4EB0A0A52
:10520000BAF1000F32DD7F48BAF1100F306017DDC0
:10521000229A239B501C102110330728716023937E
:10522000229001DC083608E00898594621AA03F0CC
:1052300025FB002840F093822EAEAAF1100AE2E787
:10524000229B239A581C02EB0A010728C6F804A0E7
:105250002391229001DC083608E00898594621AADB
:1052600003F00CFB002840F07A822EAE19F4807F08
:1052700002D10998306093E1B8F1650F40F3A48141
:10528000DDE90C010022002304F058F9002856D073
:105290005D49012331602299239A73604B1C501C95
:1052A000072B2390229301DC083608E00898594622
:1052B00021AA03F0E3FA002840F051822EAE1A9A98
:1052C0000A98824203DB19F0010F00F0F68114996D
:1052D000119A3160239B2299726098184A1C072A00
:1052E0002390229201DC083608E00898594621AA4A
:1052F00003F0C4FA002840F032822EAE0A9C013C32
:10530000002C40F3DA813F4B102C336040F348818E
:10531000229A2399531C10201031072B706023917F
:10532000229301DC083608E00898594621AA03F0C8
:10533000A5FA002840F013822EAE103CE3E71A993C
:10534000002970DC3048012130602298239B716075
:10535000411C5A1C07292392229101DC083608E0DF
:105360000898594621AA03F089FA002840F0F781ED
:105370002EAE1A9B2BB90A9A1AB919F0010F00F038
:105380009C81149811993060239B229871605A185F
:10539000411C07292392229101DC083608E0089875
:1053A000594621AA03F06AFA002840F0D8812EAEAF
:1053B0001A9C6442002C32DD124B102C336016DD37
:1053C000229A239B501C10211033072871602393CD
:1053D000229001DC083608E00898594621AA03F01B
:1053E0004DFA002840F0BB812EAE103CE4E7229835
:1053F000239A411C7460072914442394229105DCEC
:1054000008360CE01E9C0800609C0800089859466D
:1054100021AA03F033FA002840F0A1812EAE099BA7
:105420000A98336043E10A9B09999846A845A8BFAA
:10543000A846B8F1000F01EB030415DD86E8020170
:105440002299239A4B1C02EB0800072B23902293EE
:1054500001DC083608E00898594621AA03F00EFA44
:10546000002840F07C812EAE28EAE87CCCEB0508D1
:10547000B8F1000F32DD984AB8F1100F326017DD35
:10548000229B23995A1C10201031072A7060239107
:10549000229201DC083608E00898594621AA03F058
:1054A000EDF9002840F05B812EAEA8F11008E2E78C
:1054B000229B23985A1C00EB0801072AC6F8048097
:1054C0002391229201DC083608E00898594621AA67
:1054D00003F0D4F9002840F042812EAE1A990A9BBD
:1054E00009989942054402DB19F0010F16D0149A6D
:1054F000119832602399229A70600B18501C07286B
:105500002393229001DC083608E00898594621AA26
:1055100003F0B4F9002840F022812EAE1A990A9BBC
:10552000641B5A1A9442A8BF1446002C14DD229B17
:1055300023985A1C0119072A35607460239122921E
:1055400001DC083608E00898594621AA03F096F9CC
:10555000002840F004812EAE1A980A9924EAE474D7
:105560000B1A1C1B002C40F3A8805B4A102C3260E5
:1055700016DD229B23995A1C10201031072A7060D7
:105580002391229201DC083608E00898594621AAA6
:1055900003F074F9002840F0E2802EAE103CE4E7FE
:1055A000746023990C192394229A531C072B22937D
:1055B00040F382800898594621AA03F05FF9002839
:1055C00040F0CD802EAE78E00123736009992398D6
:1055D000229B0A9A31600133411C012A23912293B4
:1055E00002DC19F0010F53D0072B01DC083608E06C
:1055F0000898594621AA03F041F9002840F0AF80ED
:105600002EAE149A119832602399229A70600B186A
:10561000501C07282393229001DC083608E00898E4
:10562000594621AA03F02AF9002840F098802EAEAE
:10563000DDE90C010022002303F080FF0A9C013CFD
:1056400018B9099B5A1C32601BE0002C2CDD224942
:10565000102C316015DD2298239A411C1023103242
:10566000072973602392229101DC083607E008982D
:10567000594621AA03F002F9002870D12EAE103C41
:10568000E5E774602398229904194B1C2394229314
:10569000072B08DD0898594621AA03F0EFF80028E7
:1056A0005DD12EAE00E008361DAA159832607060FC
:1056B000239A1018239077E7083619F0040F0DD1BC
:1056C00010990B9B0F9A23989342ACBFC918891865
:1056D0001091002837D030E01E9C08000F9C0B98DA
:1056E000241A002CECDD2549102C316014DD229A9F
:1056F000239B501C102110330728716023932290A4
:1057000001DC083606E00898594621AA03F0B6F8ED
:1057100028BB2EAE103CE6E7229B239A581C7460EF
:105720000728144423942290CADD0898594621AAD8
:1057300003F0A4F80028C3D011E00898594621AA24
:1057400003F09CF858B9002622962EAEFFF7D8B881
:10575000239921B10898594621AA03F08FF8BBF884
:105760000C30109903F0400210B2002818BF4FF01F
:10577000FF3108463FB0BDE8F08F00BF0E9C080027
:1057800093682DE9F04781460F4614461BB95360D4
:105790001846BDE8F0874B6E9B041ED51568A068BF
:1057A0000835C8B155F8041C55F808AC4FEA910803
:1057B0000026464509DA48465AF826103A4601F0CE
:1057C00069FC431C0BD00136F3E7A2684FEA880856
:1057D000C8EB0203A360E2E701E001F0D3FD002182
:1057E000A1606160BDE8F0872DE9F04F8946A9B05E
:1057F00014461D461E46824618B1836B0BB901F054
:10580000CDFBB9F80C0000F4005211B249B940F4D4
:105810000053D9F86400A9F80C3020F40052C9F8FC
:105820006420B9F80C1001F0080318B248B1D9F897
:10583000102032B1B9F80C1001F01A030A2B16D15E
:1058400009E05046494600F025FC0028F2D04FF010
:10585000FF320392D3E3B9F90E00002807DB50466C
:10586000494622462B4600F0CEFB0390C7E30022B8
:1058700018AD0B950D920C92019405920392A846D7
:1058800001990C4611F8013B0BB1252BF9D1019A76
:10589000A51A19D00C990D984B1C88E82400072BE9
:1058A00000EB05020D9208F108080C9309DD504643
:1058B00049460BAAFFF764FF002840F098830DF1DA
:1058C00060080398421903922178002900F0888328
:1058D0000022013401948DF827204FF0FF3C049200
:1058E0001746019810F8013B0190632B00F0B3803C
:1058F00033DC392B1ADC312B80F291802B2B01D138
:105900001A46EEE70ADC232B55D02A2B56D0202B43
:1059100040F0F581002A08BF2022E2E72E2B58D064
:10592000302B79D02D2B40F0EA814FE04F2B00F047
:10593000DE8007DC442B40F0E2818DF8272047F021
:10594000100790E0552B00F01F81582B40F0D781B5
:10595000AE4D8DF82720059530E16F2B00F0C98002
:1059600010DC692B24D007DC642B21D0682B40F09D
:10597000C68147F04007B4E76C2B5FD06E2B40F038
:10598000BE8196E0732B00F0DF8006DC702B00F008
:10599000CD80712B40F0B3815AE0752B00F0F6807A
:1059A000782B40F0AC819A4D8DF82720059505E1C4
:1059B0008DF8272057E047F0010792E7331D36683E
:1059C000002E049615DA704204901E4647F0040734
:1059D00087E7019911F8013B2A2B01910BD1D6F8E9
:1059E00000C0331DBCF1000F03DA1E464FF0FF3C30
:1059F00077E71E4675E74FF0000CA3F13000092849
:105A000007D801990A2303FB0C0C11F8013B019103
:105A1000F3E74CEAEC7C68E747F0800761E7019820
:105A20000021303B0A2404FB013110F8013BA3F1B3
:105A30003004092C0190F4D9049156E701990B78B0
:105A40006C2B02D1481C019002E047F0100748E798
:105A500047F0200745E7326800258DF838208DF89B
:105A60002750043655E1BA0607D5073626F0070554
:105A700005F10806D5E900450FE017F0100F06F113
:105A8000040101D0326805E017F0400F326801D000
:105A900014B200E01446E5170E46002C75F1000222
:105AA00080F2B8802D23644265EB45058DF82730E0
:105AB000B0E017F0200F8DF8272006F1040205D082
:105AC000039C3568E0172C60686004E0FB0604D591
:105AD0003368039919601646D2E63068039C17F0C4
